:020000040800F2
:10000000800A0020B9020008912D0008DD280008B0
:10001000152C0008870700081137000800000000B1
:10002000000000000000000000000000952D000806
:10003000A308000800000000932D0008972D000879
:10004000D3020008D3020008D3020008D30200083C
:10005000D3020008D3020008D3020008D30200082C
:10006000D3020008D3020008D3020008F5070008F5
:10007000D3020008D3020008D3020008D30200080C
:10008000D302000800000000D3020008D3020008D9
:10009000D3020008D3020008D3020008D3020008EC
:1000A000D3020008D3020008D3020008D3020008DC
:1000B000152E0008292E0008D3020008D3020008DC
:1000C000D3020008D3020008D3020008D3020008BC
:1000D000D3020008D3020008D3020008D3020008AC
:1000E000A5080008D3020008D3020008D3020008C4
:1000F000D3020008D3020008D30200080000000069
:1001000000000000D302000800000000D302000835
:10011000D302000800000000D3020008D302000848
:10012000D3020008D3020008D3020008D30200085B
:10013000D30200080000000000000000D302000805
:10014000D3020008D30200080000000000000000F5
:10015000000000000000000000000000000000009F
:10016000000000000000000000000000D3020008B2
:10017000D3020008000000000000000000000000A2
:1001800000000000D3020008000000000000000092
:10019000000000000000000000000000000000005F
:1001A0000000000000000000D3020008D302000895
:1001B000D3020008D3020008D302000800000000A8
:1001C00000000000D3020008000000000000000052
:1001D000D3020008D302000800F002F800F05CF837
:1001E0000AA090E8000C82448344AAF10107DA4592
:1001F00001D100F051F8AFF2090EBAE80F0013F088
:10020000010F18BFFB1A43F001031847C83500005F
:10021000E83500000A444FF0000C10F8013B13F0E1
:10022000070408BF10F8014B1D1108BF10F8015B4F
:10023000641E05D010F8016B641E01F8016BF9D142
:1002400013F0080F1EBF10F8014BAD1C0C1B09D199
:100250006D1E58BF01F801CBFAD505E014F8016B0B
:1002600001F8016B6D1EF9D59142D6D3704700009D
:100270000023002400250026103A28BF78C1FBD8AF
:10028000520728BF30C148BF0B6070471FB503F04D
:100290007DFA1FBD10B510BD00F001F91146FFF742
:1002A000F5FF03F047FA00F01FF903B4FFF7F2FF80
:1002B00003BC00F027F900000948804709480047BF
:1002C000FEE7FEE7FEE7FEE7FEE7FEE7FEE7FEE706
:1002D000FEE7FEE704480549054A064B7047000063
:1002E000052E0008D901000880040020800A0020A3
:1002F000800600208006002053EA020C00F069808E
:100300002DE9F04B4FF00006002B1FBFB3FA83F529
:1003100003FA05F424FA05F65E4012BF1643B2FA5A
:1003200082F502FA05F4C5F120051EBF22FA05FC8C
:1003300044EA0C04203556EA044C4FEA144418BF32
:10034000641C4FF000084FF00009904271EB030C61
:1003500039D3002919BFB1FA81F701FA07F6B0FACB
:1003600080F700FA07F6C7F120071EBF20FA07FC46
:1003700046EA0C062037B6FBF4FCA7EB0507103F56
:1003800007F01F0BCBF120060CFA0BFB2CFA06F63C
:1003900044BFB3460026202FA4BF5E464FF0000B9B
:1003A0005BEA060C08BF4FF0010B19EB0B09ABFB26
:1003B000027C48EB0608C01B06FB02CC0BFB03CCFF
:1003C00071EB0C01C1E70B46024641464846BDE8C9
:1003D000F08B13B54FF000004FF00001AFF3008039
:1003E000BDE81C40704710B5203AC0F00B80B1E862
:1003F0001850203AA0E81850B1E81850A0E818505A
:10040000BFF4F5AF5FEA027C24BFB1E81850A0E862
:10041000185044BF18C918C0BDE810405FEA827C7C
:1004200024BF51F8043B40F8043B08BF7047D20793
:1004300028BF31F8023B48BF11F8012B28BF20F834
:10044000023B48BF00F8012B70474FF0000200B597
:10045000134694469646203922BFA0E80C50A0E8E7
:100460000C50B1F12001BFF4F7AF090728BFA0E895
:100470000C5048BF0CC05DF804EB890028BF40F861
:10048000042B08BF704748BF20F8022B11F0804FA3
:1004900018BF00F8012B70477047704770477546CA
:1004A00000F02CF8AE4605006946534620F00700E0
:1004B000854618B020B5FFF70DFFBDE820404FF08E
:1004C00000064FF000074FF000084FF0000B21F03E
:1004D0000701AC46ACE8C009ACE8C009ACE8C0090B
:1004E000ACE8C0098D46704710B50446AFF30080F4
:1004F0002046BDE81040FFF7D8BE00000048704716
:100500002004002001491820ABBEFEE726000200AF
:10051000704710B5846AE16D11F0500F06D0E16D9F
:10052000C90625D5204600F04FFC10BDE06D40F413
:100530000070E06520680168090716D502F0E1F94E
:1005400078B12068C068800400280ADBE06D20F4E0
:100550008070E065E06DC00403D4E06D40F0010000
:10056000E065204600F02EFC10BDC0688007EBE778
:10057000616D496BBDE81040084710B5806AC16DD8
:1005800041F04001C165016E41F00401016600F0D7
:100590001BFC10BD10B5806A00F015FC10BD0000FA
:1005A000F8B50446002000902068816811F0010F22
:1005B00041D18168214A11422ED18168D543294019
:1005C000491C81601E48806800F0E07000020DD573
:1005D0001C481D490068B0FBF1F0401C00EB4000D6
:1005E000800000E0401E00900028FBD101F006F8DA
:1005F00006461BE0816811F0010F03D18168294094
:10060000491C816000F0FAFF801B02280ED9206887
:100610000068C043C00709D0E06D40F01000E065FD
:10062000206E40F0010020660120F8BD20680168BE
:10063000C943C907DED10020F8BD00003F0000809B
:100640000003005094010020400D030070B5002508
:100650000E46012801D9AD1E11E000EB800101EB2F
:100660004011084800EB8100044600F08DF8204658
:10067000314602F027FA10B16FF0030070BD284632
:1006800070BD00008C03002070B50446114886B090
:10069000C16C41F00101C164C06C0F4E00F001005B
:1006A000059036F81400009001200190002002907F
:1006B0000A4D0320039055F82400694600F070FEAF
:1006C00036F8141055F82400002200F092FF06B00E
:1006D000002070BD001002409A3700086C01002015
:1006E0007047000030B50446214887B0C26C42F024
:1006F0000402C264C06C00F0040005901D4830F88C
:10070000140000900220029003901B4850F824002F
:1007100041B34FF488110191694600F041FE15483C
:10072000001D50F824101448103000EBC40005469A
:1007300000F01AFE10480021083050F82420284606
:1007400000F018FE0C480B4D0C302D1F50F82410F3
:100750002857002200F0B8FF285700F0A7FF07B085
:10076000002030BD00210191694600F019FEF6E736
:10077000001002409C3700087001002010B50020D6
:10078000FFF7AEFF10BDFEE770B5194886B0C16C2B
:1007900041F00101C164C16C01F001010591C16C1E
:1007A00041F00101C164C16C01F001010591C16D0D
:1007B00041F00101C165C06D022400F00100059007
:1007C0000420CDE9000402AA01200C2582E83100B2
:1007D0004FF090466946304600F0E2FD0820CDE932
:1007E000000469460495304600F0DAFD06B070BD9D
:1007F00000100240014800F0B3BC00009402002049
:100800000D4902688A4201D20C4901E00B492031AE
:10081000D2B21423083AB2FBF3F2436C02F01F0287
:1008200023F003031944816404498031C164012128
:100830009140016570470000080402400008024032
:100840000179074A02EB81024265054A4432491E9A
:10085000826501F01F0201219140C16570470000CF
:10086000FC08024030B5D0E913456560446D14B111
:10087000D0E91645656090F8444004F01F05012456
:10088000AC40056C6C60046863608368102B03687F
:1008900003D099600068C26030BD9A600068C16092
:1008A00030BD704710B501F097FF4FF4804000F065
:1008B0006BFD4FF4004000F067FDBDE8104001F013
:1008C00089BF72B6FEE700002DE9F047044690F8B4
:1008D00058009CB00E464FF00009012815D00120A9
:1008E00084F8580000251795189520684FF0A04807
:1008F00040450ED1284F0097384601F0FEFF824652
:10090000206801F0FAFF60B10EE002201CB0BDE8E3
:10091000F087E06D40F02000E06584F85850012039
:10092000F4E7BAF1000F09D0E06D40F02000E06577
:100930004FF0010984F858504846E7E717483268F5
:1009400040F61F71002A826822F4604216D094F8A3
:10095000383042EA433273681A438260D8F808207C
:10096000BB6802F0010203F001031A43E2D1B3684D
:1009700032681A4383688B431A430BE08260D8F8CD
:100980000820BB6802F0010203F001031A43D1D131
:1009900082688A438260CDE7000100500003005066
:1009A0002DE9F84F00270446009790F85800DFF82B
:1009B000E0930D46B846012811D0012684F858600E
:1009C000206801F096FF60B1E06D40F02000E06526
:1009D0005FF0010784F858803846BDE8F88F0220A0
:1009E000FBE7D5E900210C23206803EA91131844A2
:1009F000036B01F01F014FF01F0C0CFA01FCC2F356
:100A0000846223EA0C038A4013430363206801F0E5
:100A100070FF8246206801F068FF5AEA00003CD16E
:100A2000AA6829682068B2F1004F37D001F071FF41
:100A30002068416921F00041416120686969C2680C
:100A4000C2F3C102520091402A69042A31D000EB5E
:100A500082002B68026EDFF83CC303F0F84302EA21
:100A60000C020B431A4342F00041016620682A69D8
:100A7000A96900EB8200026E22F080720A430266CE
:100A8000297F22682869012910D0002102EB80000B
:100A9000026E22F000720A4302667DE0002201F03D
:100AA00038FF2068416941F00041C5E74FF000710F
:100AB000ECE7002101F013FF400320684FF0000134
:100AC00072D001F00CFF90FAA0F0B0FA80F1286823
:100AD00042036ED090FAA0F0B0FA80F0814204D1C7
:100AE00000221146206801F023FF0121206801F057
:100AF000F6FE400320684FF001015DD001F0EFFEEB
:100B000090FAA0F0B0FA80F12868420359D090FA28
:100B1000A0F0B0FA80F0814204D1002201212068C7
:100B200001F006FF0221206801F0D9FE4003206891
:100B30004FF0020148D001F0D2FE90FAA0F0B0FAD6
:100B400080F12868420344D090FAA0F0B0FA80F017
:100B5000814204D100220221206801F0E9FE032134
:100B6000206801F0BCFE400320684FF0030133D041
:100B700001F0B5FE90FAA0F0B0FA80F128684203C7
:100B80002FD090FAA0F0B0FA80F0814204D1002278
:100B90000321206801F0CCFE2068816811F0010F6C
:100BA00022D0ACE000E004E001F099FEC0F38461E3
:100BB0008DE7C0F3846091E701F091FEC0F384619A
:100BC000A2E7C0F38460A6E701F089FEC0F3846168
:100BD000B7E7C0F38460BBE701F081FEC0F3846136
:100BE000CCE7C0F38460D0E72A7B296850F8B03F97
:100BF000C1F3120C23EA0C0302F0180C664A22FA25
:100C00000CF20A4013430360E968494577D128682C
:100C100041031CD090FAA0F1B1FA81F1491C01F016
:100C20001F0109294FEA403132D8002912D000BFF4
:100C300090FAA0F1B1FA81F101F1010101F01F0177
:100C400006FA01F609D100BFC0F3846109E0C0F3E0
:100C50008461E3E7C0F38461EEE790FAA0F1B1FAB2
:100C600081F101F1010101F01F0146EA816102D128
:100C7000C0F3846003E090FAA0F0B0FA80F000F1D5
:100C8000010000F01F0000EB400041EA005132E09B
:100C900000290ED090FAA0F1B1FA81F101F1010121
:100CA00001F01F0106FA01F606D100BFC0F384610E
:100CB00006E0C0F38461F1E790FAA0F1B1FA81F1A6
:100CC00001F1010101F01F0146EA816102D1C0F387
:100CD000846003E090FAA0F0B0FA80F000F1010027
:100CE00000F01F002D4A00EB400002EB005041EAEB
:100CF000000141F00071AA68206801F00AFE28484E
:100D00002A6802423FF466AE26488168264B01F00D
:100D1000E0719A4202D0254B9A421CD10B021AD4A0
:100D20002268B2F1A04F7FF455AE826841F4000111
:100D300022F0E0720A4382601D481E490068B0FB41
:100D4000F1F0401C00EB4000800000E0401E0090ED
:100D50000028FBD13EE6184D184BAA4207D1CD0121
:100D600005D422689A42F5D041F0807109E0144D13
:100D7000AA42EFD14A02EDD422689A42EAD041F465
:100D80008001826822F0E0720A43826022E600005D
:100D900000007F4000F0FF03FFFF0700000020FE7F
:100DA0000000088000030050000021C31000C09024
:100DB00094010020400D0300000052C700010050C4
:100DC000000084CB7047704770470000F8B54FF0C3
:100DD000000504002E46009502D0E06D10B107E03A
:100DE0000120F8BD204600F0EBF8266684F8586034
:100DF00020688168C1F3407119B18168684A114067
:100E0000816020688168C1F3007189B98168654A91
:100E1000114041F080518160634864490068B0FB33
:100E2000F1F04000801C00E0401E00900028FBD143
:100E300020688168C1F3007141B9E16D41F0100192
:100E4000E165216E41F001012166012501F051FDAE
:100E5000E16DC90600D430B1E06D40F01000E065EE
:100E600001252846F8BDE06D20F4807040F00200B6
:100E7000E0652068806810F0010F11D14FF0A040AC
:100E800080684B4900F00100896801F001010843C6
:100E900006D148486168826822F47C120A43826065
:100EA000E168E06B627F0843A16841EA4231084390
:100EB00094F8241040EA0140012904D1218D3E4AD2
:100EC00002EB41410843E16A29B101F47871226BD8
:100ED000014342EA01002268D168384B19400143BE
:100EE000D16020680169626B21F0406111430161AA
:100EF000206801F0FAFC70BB207F94F83810800362
:100F000040EA41022168C86844F202039843104352
:100F1000C86020690028206801690AD041F4803146
:100F20000161206850F8C01F22696FF30D01114361
:100F300007E021F480310161206850F8C01F6FF391
:100F40000D01016094F8400001280CD0206801696F
:100F500021F001010161606901282068016B21F025
:100F60000F0111D013E0D4E911010843D4E91312A1
:100F70001143084321680A6940F2FC739A43104305
:100F800040F001000861E6E7226A521E1143016346
:100F9000E06D20F0020040F00100E06561E7000034
:100FA000C0FFFF5FC0FFFF7F94010020400D0300E2
:100FB00000010050000300500000FEFF0740F0FF5A
:100FC00070B598B00546142111A8FFF73EFA4421E8
:100FD0006846FFF73AFA2868B0F1A04F3DD14FF4C8
:100FE0000040009080030F90684600F005FC08B1B7
:100FF000FFF767FC1A49C86C40F40050C864C86C1D
:1010000000F400501690C86C40F00200C864C86C30
:10101000002600F002001690022011900320CDE976
:10102000120611A90F4800F0BBF9104C0E482060C1
:101030000520C4E901068020C4E903604000606126
:101040008000A0612020C4E90706204600F0E6F8F1
:1010500008B1FFF736FC6C65A56218B070BD0000E2
:1010600000100240000400480800024094020020E2
:101070002DE9F0410446344817468846806800F060
:101080001F05206801F035FC00285AD194F858005B
:10109000012856D0012084F85800002625B1052DDE
:1010A00002D0092D00D003E02046FFF779FA18B1ED
:1010B00084F85860BDE8F081E06D40F60161884336
:1010C00040F48070E06521492068884202D14FF0E9
:1010D000A04100E00146814200D01DB9E06D20F43E
:1010E0008010E065E06DC00404D5206E20F006009D
:1010F000206600E02666616D1548C862616D15487E
:101100000863616D1448486321681C20086084F8F6
:1011100058602068416841F0100141602068C16852
:1011200041F00101C16021683B4642464031606D9B
:1011300000F0D4F821688A68084B1A40121D8A60B2
:10114000B8E70220B6E7000000030050000100509D
:1011500013050008950500087B050008C0FFFF7F08
:10116000F0B4016C0C6801680D6890F8442002F03E
:101170001F06042202FA06F3234211D06B070FD593
:101180000B689B0603D40B6823F004030B6090F8F4
:10119000441001F01F018A40016C4A60016B1DE0A0
:1011A000022303FA06F727424FF0000C4FF001022A
:1011B00018D0AF0716D50C68A40605D40C6824F027
:1011C0000A040C6080F8252090F8441001F01F01FB
:1011D0008B40016C4B6080F824C0C16A00291AD092
:1011E000F0BC08470823B340234214D02B0712D584
:1011F0000B6823F00E030B6090F84410036C01F0B1
:101200001F0102FA01F15960C26380F8252080F8BD
:1012100024C0416BE2E7F0BC7047000070B50400E9
:101220000CD02B4A21681420914209D2294A0A4441
:10123000B2FBF0F08000606427480AE0012070BD36
:10124000234A52420A44B2FBF0F080006064204816
:1012500008382064022084F825000A6847F6F070F8
:101260008243D4E902031843D4E904352B431843DD
:10127000A3691843E3691843236A184310430860BD
:101280002046FFF7BDFAA0680025B0F5804F00D1D9
:101290006560A16C20790860D4E913014160606841
:1012A000401E032808D82046FFF7CAFA606D056083
:1012B000D4E91601416002E06565A565E565E56371
:1012C000012084F8250084F82450002070BD00001F
:1012D00008040240F8FFFDBF0000024070B504465C
:1012E00090F82400002501280CD0012084F8240067
:1012F00094F825600020012E06D084F824000225F1
:10130000284670BD022070BD022684F82560E06387
:101310002068066826F0010606602046FFF7A2FA5C
:10132000206B00282068016802D041F00E0106E021
:1013300021F0040101602068016841F00A010160A8
:10134000A06C0168C90303D5016841F48071016094
:10135000606D18B1016841F4807101602068016816
:1013600041F001010160CBE710B10160002070473E
:10137000012070470346002011B1586001207047DA
:101380005A60704770470000044910B50A6802426D
:1013900002D00860FFF7F6FF10BD00001404014002
:1013A0002DE9F04FDFF82092002301260324A9F154
:1013B000040B85B00F2709F1040AABF1040EFAE023
:1013C00006FA03F52A407CD091F804C00CF0030C17
:1013D000BCF1010F02D0BCF1020F26D1D0F808C039
:1013E000CDF800C04FEA430C04FA0CF8CDF810C059
:1013F000DDF800C02CEA080CCDF800C0D1F80C8054
:10140000DDF810C008FA0CF8DDF800C048EA0C0856
:10141000C0F80880D0F804C02CEA050C0D79C5F39B
:1014200000159D4045EA0C0545600D79ED43AD077B
:101430000ED0C5684FEA430804FA08FC25EA0C05FB
:10144000D1F808C00CFA08FC4CEA050CC0F80CC036
:101450000D7905F00305022D16D1DD0800EB850C92
:10146000CDF808C0DCF820805D074FEAD56C07FA9C
:101470000CF528EA05080D6905FA0CF5DDF808C039
:1014800045EA0805CCF8205005684FEA430CCDF832
:1014900008C004FA0CFC25EA0C0591F804C00CF015
:1014A0000308DDF808C008FA0CF848EA0508C0F897
:1014B00000804D6815F4403F7CD0444DD5F860C0A5
:1014C00000E077E04CF0010CC5F860C02D6E23F011
:1014D000030C05F0010500953D4D65440295AD688E
:1014E0004FEA837C4FEA1C7807FA08FC25EA0C05D2
:1014F000B0F1904F06D0DFF8DCC0604505D14FF069
:10150000010C20E04FF0000C1DE0DFF8CCC060457E
:1015100002D14FF0020C16E0DFF8C0C0604502D1E6
:101520004FF0030C0FE0DFF8B8C0604502D14FF078
:10153000040C08E0DFF8ACC0604502D14FF0050CA8
:1015400001E04FF0060C0CFA08FC4CEA050C029D79
:10155000C5F808C0D9F80050CC46D1F804809543AE
:101560005FEAC82800D51543CCF80050DAF80050DF
:10157000D446D1F8048095435FEA882800D5154306
:10158000CCF80050DBF80050DC46D1F804809543DD
:101590005FEA883800D51543CCF80050DEF80050DB
:1015A000F446D1F8048095435FEAC83800D5154366
:1015B000CCF800505B1C0A6832FA03F57FF400AFE8
:1015C00005B0BDE8F08F00000804014000100240A3
:1015D000000001400004004800080048000C0048DA
:1015E00000100048001400480069084000D00120A5
:1015F00070470AB181617047816270470148806815
:101600007047000088010020024881684268114448
:10161000816070478801002010B50024032000F08D
:1016200073F8002000F008F808B1012401E000F090
:1016300025F8204610BD000070B50E4E054600246A
:10164000706898B14FF47A71B1FBF0F00A490968FB
:10165000B1FBF0F000F060FD40B9102D06D2002281
:101660002946501E00F030F8356000E00124204685
:1016700070BD000088010020940100200A4882B05B
:10168000016E41F001010166016E01F0010100915E
:10169000816D41F080518165806D00F08050009037
:1016A00002B000F0A1B8000000100240002809DBE1
:1016B00000F01F02012191404009800000F1E0206C
:1016C000C0F8001170470000F0B40E4B1B680C46C8
:1016D000C3F30223C3F10705042D00D90425191D06
:1016E000072901D2002300E0DB1E012606FA05F1DE
:1016F000491E214099409E40761E16403143F0BC61
:1017000002F007B80CED00E0064900F00702086897
:101710004FF6FF03184040EA0220034A10430860D6
:10172000704700000CED00E00000FA052B492C4B3F
:101730000A6832214A432B4940B1B0F5007F08685E
:1017400029D020F4C06040F480602CE00868C0F329
:101750004120022804D051F8800F20F4807022E04C
:10176000D1F8800020F48070C1F88000086820F46F
:10177000C06040F400700860B2FBF3F0401C00E071
:10178000401E4A69520501D50028F9D14869400533
:101790000AD503207047C0F34120022806D051F833
:1017A000800F40F48070086000207047D1F88000FE
:1017B00040F48070C1F88000086820F4C06040F4F4
:1017C00000700860B2FBF3F0401C00E0401E4A6964
:1017D0005205DBD50028F9D1D8E70000940100209C
:1017E00040420F00007000400248816841F480418F
:1017F00081607047007000402DE9F843044600689E
:1018000000269D4D00035ED5A86D0027C00008D4BA
:10181000A86D40F08050A865A86D012700F08050A9
:101820000090DFF85892D9F8001041F48071C9F89F
:101830000010FFF7E3FE804606E000BFFFF7DEFE84
:10184000A0EB080002282BD8D9F80000C005F5D578
:10185000D5F8900010F4407014D0216C814211D062
:10186000D5F89000D5F8901020F4407041F4803104
:10187000C5F89010D5F8901021F48031C5F890107B
:10188000C5F89000C00711D0FFF7B8FE804641F2BE
:10189000883907E0FFF7B2FEA0EB0801494501D9FE
:1018A00003260BE0D5F890008007F3D5D5F890001B
:1018B000216C20F440700843C5F890001FB1A86D5A
:1018C00020F08050A8652078C00707D0D5F88800A0
:1018D000616820F003000843C5F88800207880077D
:1018E00007D5D5F88800A16820F00C000843C5F89A
:1018F00088002078400707D5D5F88800E16820F0F7
:1019000030000843C5F888002078000707D5D5F8CF
:101910008800216920F0C0000843C5F888002078BD
:10192000800607D5D5F88800616920F44060084337
:10193000C5F888002078400607D5D5F88800A16949
:1019400020F440500843C5F888002078000607D5E9
:10195000D5F88800E16920F440400843C5F88800C4
:101960002088C00507D5D5F88800216A20F44030CA
:101970000843C5F888002088800507D5D5F8880079
:10198000616A20F440200843C5F88800208840059B
:101990000FD5D5F88800A16A20F440100843C5F897
:1019A0008800A06AB0F5801F03D1E86840F4801079
:1019B000E860208800050FD5D5F88800E16A20F49A
:1019C00040000843C5F88800E06AB0F5800F03D1F5
:1019D000E86840F48010E8602088C0040FD5D5F88E
:1019E0008800216B20F040700843C5F88800206B08
:1019F000B0F1807F03D1E86840F48010E86020886F
:101A00004FF0006180040ED5D5F88800626B20F09D
:101A100040601043C5F88800606B884203D1E868D5
:101A200040F48010E860208840040ED5D5F8880086
:101A3000A26B20F040601043C5F88800A06B88427C
:101A400003D1E86840F48010E860208800040FD5D6
:101A5000D5F88800E16B20F040500843C5F88800B5
:101A6000E06BB0F1805F03D1E86840F48030E8605B
:101A70003046BDE8F88300000010024000700040CE
:101A80002DE9F0470E4605004FF0000725D0DFF89E
:101A9000AC81D8F8000000F00F00B0420CD2D8F8AA
:101AA000001021F00F013143C8F80010D8F80000F1
:101AB00000F00F00B04210D12968614CC80741F214
:101AC000883A5AD06868DFF87C91032808D0022849
:101AD00020682DD0400500282CDB0120BDE8F087D0
:101AE00020688001F9D5E06800F00302E068C0F3E7
:101AF0000310401C032A19D0534A00BFB2FBF0F078
:101B0000E268C2F306225043E268C2F34162521C0B
:101B10005200B0FBF2F0484517D9A06810F0F00F62
:101B20000CD0880711D5A86840B10EE0474AE5E718
:101B30008003D0E700F0B6F8484506D9A06820F049
:101B4000F00040F08000A0608027A068696820F065
:101B500003000843A060FFF751FD814606E000BF87
:101B6000FFF74CFDA0EB090151453AD8A068696820
:101B700000F00C00B0EB810FF2D12868810714D57A
:101B8000400703D5A06840F4E060A0602878000713
:101B900005D5A06820F4605040F4E060A060A06823
:101BA000A96820F0F000084304E0802F03D1A0686A
:101BB00020F0F000A060D8F80010404601F00F01BE
:101BC000B14216D9016821F00F0131430160FFF7DE
:101BD00015FD074607E000BFFFF710FDC11B51458B
:101BE00001D903207AE7D8F8000000F00F00B042D6
:101BF000F2D12878400705D5A068E96820F4E060B4
:101C00000843A0602878000706D5A068296920F459
:101C1000605040EAC100A06000F044F8A1680C4A9E
:101C2000C1F30311515C01F01F01C840094908606C
:101C300009480068BDE8F047FFF7FEBC00200240FD
:101C40000010024000B4C4040024F40000366E0109
:101C5000BC3700089401002088010020054806498F
:101C600000688968054AC1F30221515C01F01F0137
:101C7000C84070479401002000100240CC37000893
:101C80000548064900688968054AC1F3C221515CCC
:101C900001F01F01C840704794010020001002406D
:101CA000CC370008184910B58868C0F3810217487E
:101CB000012A0BD08A68164BC2F38102022A06D091
:101CC0008A68C2F38102032A03D0002010BD18469F
:101CD00010BDCA6802F00304CA68C2F30312521CA2
:101CE000032C02D0B0FBF2F001E0B3FBF2F0CA68C3
:101CF000C968C2F306225043C1F34161491C49003F
:101D0000B0FBF1F010BD0000001002400024F40010
:101D100000366E012DE9F84304007AD02078F84DA2
:101D2000C00747D0A868E96800F00C0001F0030183
:101D30000C2802D0082817D001E0032914D06068CD
:101D4000B0F5803F17D0B0F5A02F286817D020F449
:101D500080302860286820F4802028606068E0B126
:101D6000FFF74CFC064614E02868800322D5606823
:101D70000028D2D01EE0286840F48030EDE740F41F
:101D800080202860F7E700BFFFF738FC801B64283D
:101D900070D828688003F7D50CE0FFF72FFC0646C3
:101DA00005E000BFFFF72AFC801B6428F0D82868F4
:101DB0008003F7D4207880074CD5A868E96800F044
:101DC0000C0001F003010C2802D004280DD001E022
:101DD00002290AD0E068002828682BD040F48070DF
:101DE0002860FFF70BFC064619E02868400502D57D
:101DF000E068002891D06868217C20F0FE4040EA2D
:101E000001606860BF480068FFF716FC002800D139
:101E100020E072E1FFF7F2FB801B0228B8D82868A7
:101E20004005F7D56868217C20F0FE4040EA01605B
:101E300068600FE020F480702860FFF7DFFB064643
:101E400005E000BFFFF7DAFB801B0228A0D8286856
:101E50004005F7D42078000729D560690028D5F817
:101E6000940013D040F00100C5F89400FFF7C6FBC2
:101E7000064606E090E000BFFFF7C0FB801B02288B
:101E800086D8D5F894008007F6D510E020F0010040
:101E9000C5F89400FFF7B2FB064604E0FFF7AEFB7F
:101EA000801B022878D8D5F894008007F6D42078D3
:101EB000400761D5A86D0026C00008D4A86D40F089
:101EC0008050A865A86D012600F0805000908E48D3
:101ED0000168C90511D40168804641F48071016030
:101EE000FFF78CFB074604E0FFF788FBC01B0228C6
:101EF00052D8D8F80000C005F6D5A068012815D042
:101F00000528D5F8900016D020F00100C5F8900003
:101F1000D5F8900020F00400C5F89000A06841F2C8
:101F20008838B8B1FFF76AFB07460EE0D5F8900095
:101F300040F00100F0E740F00400C5F89000F5E73C
:101F4000FFF75CFBC11B414526D8D5F89000800700
:101F5000F6D50CE0FFF752FB074604E0FFF74EFB17
:101F6000C11B414518D8D5F890008007F6D41EB1A2
:101F7000A86D20F08050A8652078800629D5A0693A
:101F80000028D5F8980013D040F00100C5F898005B
:101F9000FFF734FB064606E075E000BFFFF72EFBB7
:101FA000801B02286FD8D5F898008007F6D510E07E
:101FB00020F00100C5F89800FFF720FB064604E07A
:101FC000FFF71CFB801B02285DD8D5F8980080071E
:101FD000F6D4E069F0B3A968C1F3810103295DD0AB
:101FE0000228286820F08070286003D0FFF706FBE5
:101FF00004464BE0FFF702FB064604E0FFF7FEFA5B
:10200000801B02283FD828688001F7D4F4E9080132
:102010006FF00F0202EB01110843218A52044908B4
:1020200002EB4151A26841EA02210843217D4FF0B1
:102030007E42490802EB41610843217B40EAC160CE
:10204000E968324A11400843E860286840F080702F
:10205000286000E05EE0E86840F08070E860FFF72C
:10206000CDFA044605E000BFFFF7C8FA001B0228BE
:1020700009D828688001F7D54CE000BFFFF7BEFA09
:10208000001B022802D90320BDE8F88328688001DC
:10209000F4D4E8681E490840E8603BE00128F3D02A
:1020A000E868226A00F00301914226D1616A00F0DB
:1020B000F0020901103991421FD1A26A00F4FE41D9
:1020C000B1EB022F19D194F82C2000F07841B1EB3C
:1020D000C26F12D1218E00F4C00249084905A1F552
:1020E0000011914209D194F8341000F0C060490801
:1020F0004906A1F1007181420CD00120C4E7000023
:102100000010024088010020007000400C809F01F8
:10211000FCFFEEFE0020B7E710B5401EB0F1807F57
:1021200001D3012010BD4FF0E02460610F21601742
:1021300001F0EFFA0020A06107202061002010BD0F
:10214000704770477047704770477047F0B590F818
:102150003C20012A3AD0012580F83C50022280F828
:102160003D2003685A689C68194E1A4FB34201D04B
:10217000BB4204D122F4700C4A6842EA0C02DFF838
:1021800058C002EA0C02D1F800C04CEA020CC3F8B5
:1021900004C00268B2420DD0B2F1804F0AD00F4B9A
:1021A0009A4207D00E4B9A4204D0BA4202D00D4B4D
:1021B0009A4204D1896824F080031943916080F821
:1021C0003D50002180F83C100846F0BD0220F0BDD3
:1021D000002C0140003401408FFFFFFD000400404F
:1021E0000008004000400140704770472DE9F04171
:1021F00004460068C66805694FF00007A90713D5B3
:10220000B10711D5F91E016101202077206880698E
:102210008007204602D0FFF7E8FF04E000F018F93D
:10222000204600F009FA2777680716D5700714D5FD
:1022300021686FF00400086102202077206880691F
:1022400010F4407F204602D0FFF7CFFF04E000F0FB
:10225000FFF8204600F0F0F92777280715D530075A
:1022600013D521686FF008000861042020772068EA
:10227000C0698007204602D0FFF7B7FF04E000F0F6
:10228000E7F8204600F0D8F92777E80616D5F006DB
:1022900014D521686FF010000861082020772068AD
:1022A000C06910F4407F204602D0FFF79EFF04E093
:1022B00000F0CEF8204600F0BFF92777E80708D0F5
:1022C000F00706D021686FF001000861204600F099
:1022D00049FA280601D4A80408D5300606D5216895
:1022E0006FF4025008612046FFF72BFFE80508D580
:1022F000300606D521686FF4807008612046FFF72C
:102300001FFF680608D5700606D521686FF04000EB
:102310000861204600F027FAA80608D5B00606D5C1
:1023200021686FF0200008612046FFF70BFFE802EC
:1023300008D5F00206D521686FF4801008612046A8
:10234000FFF702FFA80208D5B00206D521686FF496
:10235000001008612046FFF7F6FE680208D57002FB
:1023600006D521686FF4800008612046FFF7EDFE76
:1023700028020AD5300208D521686FF400000861F0
:102380002046BDE8F041FFF72FBFBDE8F081000017
:1023900070B586B0044614216846FEF756F82268E8
:1023A0000025274902244FF09040B2F1804F25D0FC
:1023B000244B9A4220D1CA6C42F00102CA64CA6C12
:1023C00002F001020592CA6C42F00402CA64C96CB0
:1023D00001F00401059150218DE83200CDE903544C
:1023E0006946FEF7DDFFE0018DE83100CDE90354D9
:1023F00069461548FEF7D4FF06B070BDCA6C42F0BE
:102400000102CA64CA6C02F001020592CA6C42F071
:102410000202CA64C96C012601F002010591032180
:102420008DE83200CDE903566946FEF7B9FFB002E8
:102430008DE83100CDE9035669460448DAE700002B
:10244000001002400004004000080048000400485A
:10245000704770B5044690F83C0000260D460128F0
:102460000BD0012084F83C000C2A4AD007DC82B152
:10247000042A20D0082A06D131E0022070BD102A9B
:1024800053D0142A63D00126002084F83C00304643
:1024900070BD206800F03EFD2068816941F00801B0
:1024A00081612068816921F004018161206881696E
:1024B0002A69114311E0206800F07AFD20688169E3
:1024C00041F4006181612068816921F4806181614A
:1024D000206881692A6941EA02218161D4E7206884
:1024E00000F0AEFD2068C16941F00801C1612068BB
:1024F000C16921F00401C1612068C1692A691143E1
:1025000011E0206800F0E4FD2068C16941F4006139
:10251000C1612068C16921F48061C1612068C1691D
:102520002A6941EA0221C161AEE7206800F018FE85
:102530002068016D41F0080101652068016D21F0FE
:10254000040101652068016D2A69114311E02068CA
:1025500000F03EFE2068016D41F4006101652068D5
:10256000016D21F4806101652068016D2A6941EAED
:102570000221016588E710B5040003D094F83D00FE
:1025800010B107E0012010BD002084F83C00204677
:1025900000F022F8022084F83D00211D206800F0A0
:1025A0004DFC012084F8480084F83E0084F83F0088
:1025B00084F8400084F8410084F8420084F8430025
:1025C00084F8440084F8450084F8460084F8470005
:1025D00084F83D00002010BD08B501681448B1F131
:1025E000804F14D0134A914220D1816D41F00201F5
:1025F0008165806D002200F00200009011461D20D0
:10260000FFF762F81D20BDE80840FFF74FB8816D65
:1026100041F001018165806D002200F00100009011
:1026200011461C20FFF750F81C20ECE708BD000005
:1026300000100240000400407047000070B5002503
:102640000446022269B1042916D0082955D00C2964
:102650005ED0102963D094F84300012866D0012091
:1026600070BD94F83E000128F9D184F83E2020681E
:10267000C26842F0020209E094F83F000128EED15E
:1026800084F83F202068C26842F00402C260012240
:10269000206800F031FC2B4920682B4A2B4B8842E4
:1026A00009D0904207D0984205D0294EB04202D0BE
:1026B000284EB04203D1466C46F40046466420687A
:1026C00088420CD0B0F1804F09D02349884206D00F
:1026D0002249884203D0904201D0984207D18168B4
:1026E0001F4A1140062906D0B1F5803F03D001688A
:1026F00041F001010160284670BD94F840000128B6
:10270000ADD184F840202068C26842F00802BDE7DD
:1027100094F841000128A2D184F8412008E094F8FF
:10272000420001289BD184F8422003E084F8432032
:102730000C2901D00125DEE72068C26842F01002B2
:10274000A4E70000002C014000340140004001409B
:1027500000440140004801400004004000080040DF
:10276000070001007047704710B5040003D0D4F88B
:10277000880010B107E0012010BD002084F884001B
:10278000204600F026F82420C4F88800206801685C
:1027900021F001010160A06A10B1204600F050FD57
:1027A000204600F031FE0128E6D02068416821F47F
:1027B000904141602068816821F02A018160206891
:1027C000016841F0010101602046BDE8104000F0C1
:1027D0009BBD70477047000000B58BB02C220849A4
:1027E0006846FDF700FE064810380FC800F030FAC2
:1027F0000BB04FF400505DF804EBFEF7C5BD0000D0
:102800001C000020024800214160816070470000E8
:10281000000000201D498CB02C220D466846FDF7B3
:10282000E2FD1A4C103C94E80F000C3C00F0F3F968
:10283000002104F10C0000F0FEF92C222946684624
:10284000FDF7D1FD0C3494E80F0000F001FA104CB4
:102850004FF0904502212046FEF7C6FE30B101221E
:1028600020212846FEF7C5FE002105E00022202198
:102870002846FEF7BEFE32210448103800F0DBF98E
:10288000402204490448FEF7F3FBE3E71C00002064
:1028900000080048980100202802002000B58BB0F5
:1028A0002C2205496846FDF79EFD034810380FC8E5
:1028B00000F0CEF90BB000BD1C00002000B58BB0BD
:1028C0002C2205496846FDF78EFD034810380FC8D5
:1028D00000F0BEF90BB000BD1C000020FEE700EBCD
:1028E0008100006E00F0F84070478068C0F3C000BF
:1028F00070478068C0F3800070478068C0F3800034
:102900007047C06810F4406F01D00020704701206C
:102910007047042303EAD15310B518444369C1F347
:10292000045107248C40A3438A401343436110BDE4
:1029300000EB8100016E21F00041114301667047F8
:1029400030B58BB0002408940994202168460A947D
:10295000FDF77BFD1C484FF0A041042501604FF4BA
:102960004031C0E90114C4600461C0E90545047741
:1029700001214177016280F82440C462046380F839
:102980003810C46380F84040FEF720FA08B1FDF724
:1029900098FF08A90C480894FDF796FF08B1FDF7C9
:1029A00090FF0A4800900620CDE901047F2005949D
:1029B000CDE9030569460448FDF7F2FF002801D080
:1029C000FDF77FFF0BB030BD280200200010603201
:1029D0000D4808B5816C41F004018164816C01F0FF
:1029E00004010091816C41F001018164806C00223E
:1029F00000F00100009011460B20FEF765FEBDE8D7
:102A000008400B20FEF752BE0010024070B586B0A1
:102A100014216846FDF719FD2748C16C41F00401F7
:102A2000C164C16C01F004010591C16C41F0200149
:102A3000C164C16C01F020010591C16C41F001013C
:102A4000C164C16C01F001010591C16C41F002014A
:102A5000C164C06C194E00F00200059000223821BC
:102A60003046FEF7C6FD00240220CDE90004694689
:102A700013480294FEF794FC4FF4604000904FF42A
:102A800044100125CDE9010569463046FEF788FC72
:102A900038200090CDE90154694630460394FEF792
:102AA0007FFC002211462820FEF70EFE2820FEF7AC
:102AB000FDFD06B070BD000000100240000400489B
:102AC00000080048094A126802600A6842600C2245
:102AD00042614A8902614A6882600A89C2608989C2
:102AE00081614FF40041C161FFF73EBE74010020D7
:102AF00010B58AB00024079408941C2168460994F4
:102B0000FDF7A3FC1D484FF080410160AA21C0E9F8
:102B100001144FF47A71C0E903148461FFF72BFDAF
:102B200008B1FDF7CEFE079407A914480994FFF7F2
:102B30000DFB08B1FDF7C5FE6020CDE9000402944D
:102B4000002269460D480494FFF783FC08B1FDF7A5
:102B5000B8FE042269460948FFF77BFC08B1FDF77F
:102B6000B0FE082269460548FFF773FC08B1FDF77F
:102B7000A8FE0248FFF70CFC0AB010BDF4020020CA
:102B800010B58AB00024079408941C216846099463
:102B9000FDF75BFC1E481D490160AA21C0E9011434
:102BA0004FF47A71C0E903148461FFF7E4FC08B1C3
:102BB000FDF787FE079407A915480994FFF7C6FAA1
:102BC00008B1FDF77EFE6020CDE9000402940022EA
:102BD00069460F480494FFF73CFC08B1FDF771FE0D
:102BE000042269460A48FFF734FC08B1FDF769FE84
:102BF000082269460648FFF72CFC08B1FDF761FE84
:102C00000348FFF7C5FB0AB010BD000000040040F8
:102C100040030020FEE70FB470B5002404AD05EBBF
:102C2000840041680498FFF709FD641C032CF6DB5F
:102C300070BC5DF814FB01F16402C82A06D84FF499
:102C40007A725143642291FBF2F181637047000074
:102C50000FB42DE9F041BDF848100F98FEF7C4FC01
:102C60008400BDF84A101098FEF7BEFC44EA400408
:102C7000BDF84C101198FEF7B7FC044343480460BC
:102C8000149848B1072C17D2DFE804F01614120488
:102C90000E161000042410E0072C0DD2DFE804F01B
:102CA0000C060C040D080A00012406E0022404E0CE
:102CB000032402E0052400E000240025334904EB4E
:102CC000440048312E4601EBC00706AC57F83500EA
:102CD000002804EB8500406823D060B104280FD0A1
:102CE000082812D00C2815D00699102814980968C5
:102CF00015D0C86421E006991498096848631CE05F
:102D0000069914980968886317E006991498096869
:102D1000C86312E006991498096808640DE0886495
:102D20000BE080B1042812D0082814D00C2816D04B
:102D300010280698006816D0C66407EBC5004068E6
:102D400098B1012212E0069800684663F5E70698FC
:102D500000688663F1E706980068C663EDE70698A9
:102D600000680664E9E78664E7E7002204EB4500B3
:102D7000818B04EB85000069FEF73BFC6D1C032D85
:102D8000A4DBBDE8F0015DF814FB000000000020AA
:102D9000FEE770477047FEF737BC00B593B03821A7
:102DA0006846FDF752FB14210EA8FDF74EFB0020EC
:102DB000FEF7BCFC0220C1010391402104910421D3
:102DC000CDE9080100905521CDE90A1007900C903B
:102DD0000D906846FEF79EFF08B172B6FEE70F2021
:102DE0000E9003200F90002010901190129004215B
:102DF0000EA8FEF745FE002801D072B6FEE713B01C
:102E000000BD00000248016841F470010160704794
:102E100088ED00E010B5FFF741FDBDE81040014826
:102E2000FFF7E4B9F402002010B5FFF747FDBDE855
:102E300010400148FFF7DAB9400300202DE9F043C4
:102E40000268264B264D274E274C4FF0804998426A
:102E500007D0484505D0A84203D0B04201D0A042D7
:102E600003D122F070074A683A43204FDFF880C050
:102E7000DFF8808098420DD048450BD0A84209D099
:102E8000B04207D0A04205D0B84203D0604501D07F
:102E9000404503D122F44075CA682A434D6922F0A7
:102EA00080022A4302608A68C2620A68826298428B
:102EB00007D0A04205D0B84203D0604501D04045BC
:102EC00001D109690163012141610169C90703D089
:102ED000016921F001010161BDE8F083002C01408E
:102EE0000004004000080040003401400040014060
:102EF000004401400048014010B501F01F030121CA
:102F0000046A99408C430462016A9A401143016249
:102F100010BD00002DE9F043056A026A22F00102AB
:102F20000262436882691C4C25F0020522400C684D
:102F300022F0030214438A68194E2A43174D194F91
:102F4000DFF864C0DFF86490A84207D0B04205D033
:102F5000B84203D0604501D0484506D122F00808A8
:102F6000CA6842EA080222F00402A84207D0B0422E
:102F700005D0B84203D0604501D0484505D14D6920
:102F800023F440731D438B692B434360846149687C
:102F900041630262BDE8F0838FFFFEFF002C014019
:102FA000003401400040014000440140004801401D
:102FB000F0B5056A026A22F0100202624268836973
:102FC000194C1B4E23400C6823F4407343EA04243D
:102FD00025F020038D6843EA0513144DA84201D063
:102FE000B04206D1CF6823F0800343EA071323F0F1
:102FF0004003A8420AD0B04208D00E4DA84205D0E6
:103000000D4DA84202D00D4DA84207D14D6922F4C2
:10301000406242EA85028D6942EA8502426084612B
:10302000496881630362F0BDFF8FFFFE002C014001
:10303000003401400040014000440140004801408C
:10304000F0B5056A026A22F4807202624368C269BE
:10305000194C1B4E22400C6822F00302144325F445
:1030600000728D6842EA0522144DA84201D0B04298
:1030700006D1CF6822F4006242EA072222F480627D
:10308000A8420AD0B04208D00E4DA84205D00E4D3D
:10309000A84202D00D4DA84207D14D6923F44053F8
:1030A00043EA05138D6943EA05134360C461496827
:1030B000C1630262F0BD00008FFFFEFF002C0140E3
:1030C00000340140004001400044014000480140FC
:1030D000F0B5056A026A22F4805202624268C3694E
:1030E000194C1B4E23400C6823F4407343EA04241C
:1030F00025F400538D6843EA0533144DA84201D0EE
:10310000B04206D1CF6823F4004343EA073323F4E7
:103110008043A8420AD0B04208D00E4DA84205D044
:103120000D4DA84202D00D4DA84207D14D6922F4A1
:10313000404242EA85128D6942EA85124260C461CA
:10314000496801640362F0BDFF8FFFFE002C01405F
:10315000003401400040014000440140004801406B
:1031600030B5056A026A22F4803202624268036D59
:10317000114C23400C681C4325F400330D8943EAAD
:1031800005430E4DA8420BD00D4DA84208D00D4D61
:10319000A84205D00C4DA84202D00C4DA84204D143
:1031A0004D6922F4803242EA052242600465496892
:1031B0008164036230BD00008FFFFEFF002C0140E0
:1031C00000340140004001400044014000480140FB
:1031D00030B5046A026A22F4801202624268036D0A
:1031E000114D24F400142B400D6843EA05230D898A
:1031F00044EA05540D4DA8420BD00D4DA84208D00D
:103200000C4DA84205D00C4DA84202D00B4DA8424F
:1032100004D14D6922F4802242EA8522426003658E
:103220004968C164046230BDFF8FFFFE002C01407D
:10323000003401400040014000440140004801408A
:1032400090F82810090706D501684A68836B22F4B4
:1032500000421A434A6090F82810C90706D0016856
:103260004A68C36A22F400321A434A6090F8281070
:10327000890706D501684A68036B22F480321A4335
:103280004A6090F82810490706D501684A68436BE0
:1032900022F480221A434A6090F82810C90606D505
:1032A00001688A68C36B22F480521A438A6090F8DE
:1032B0002810890606D501688A68036C22F400523A
:1032C0001A438A6090F82810490611D501684A68A7
:1032D000436C22F480121A434A60416CB1F5801F9E
:1032E00006D101684A68836C22F4C0021A434A601E
:1032F00090F82810090606D501684A68C06C22F4C7
:10330000002202434A6070472DE9F8430026044634
:10331000C0F89060FEF772F98046206800684FF0B0
:10332000200500076FF07E4713D54346002229048D
:103330002046009700F0A2F958B1216851E8000F2B
:1033400020F0800041E80002002AF6D1C4F888503D
:1033500021E020680068400722D5434600224FF450
:1033600080012046009700F089F9C8B1216851E832
:10337000000F20F4907041E80002002AF6D1206886
:10338000083050E8001F21F0010140E80012002A37
:10339000F5D1C4F88C5084F884600320BDE8F8832C
:1033A000C4F88850C4F88C5044F86C6F6660267678
:1033B0000020F3E710B5026852E8001F21F4907175
:1033C00042E80013002BF6D10E4B0268083252E897
:1033D000001F194042E80014002CF6D1C16E0129EB
:1033E00008D1016851E8002F22F0100241E80023C3
:1033F000002BF6D12021C0F88C100021C166416756
:1034000010BD0000FEFFFFEF2DE9F041044601680A
:1034100080682269E3691043626900251A431043FA
:10342000DFF82CC20A688B4B1A4002430A602068FE
:103430004168E26821F44051114341602168A0696C
:10344000614501D0226A10438A68834B1A400243C7
:103450008A602068C16A626A21F00F011143C1626B
:103460007E4923687E488B420DD1D0F8880010F049
:10347000030006D0012855D0022842D003283FD1AE
:1034800052E001203DE077498B420BD1D0F8880013
:1034900010F00C0035D0042833D0082840D00C2878
:1034A0002ED141E070498B420BD1D0F8880010F04A
:1034B000300026D0102835D0202831D030281FD118
:1034C00032E06A498B420BD1D0F8880010F0C0007E
:1034D00017D0402826D0802822D0C02810D123E041
:1034E00063450DD1D0F8880010F4406009D0B0F5E4
:1034F000806F17D0B0F5006F12D0B0F5406F13D0C9
:1035000010205B495B4F00264FF4004263453BD1DE
:1035100060B1022813D004280BD0082872D10DE026
:103520000220EEE70420ECE70820EAE7FEF796FB2E
:1035300001E0FEF7B7FB010001D17CE01146606AB3
:1035400037F810206768B1FBF2F007EB47038342BE
:1035500070D8B0EB073F6DD8002308461946FCF73A
:10356000CBFE090241EA106102027808101871418D
:103570003A460023FCF7C0FE3F4AA0F54071914255
:1035800058D82168C86056E0E3694FF6EF78934257
:103590002CD109284ED2DFE800F00508114D0D4D61
:1035A0004D4D1000FEF75AFB01E0FEF769FB0100EC
:1035B00004D140E0FEF776FBF9E71146606A37F880
:1035C0001000B1FBF0F04100606801EB5001B1FB6D
:1035D000F0F0A0F1100141452CD84FF6F0710140F8
:1035E000C0F3420001432068C16024E0092821D2D1
:1035F000DFE800F0050912200E2020201100FEF760
:103600002DFB02E016E0FEF73BFB010004D112E0C7
:10361000FEF748FBF9E71146606A37F81000B1FB86
:10362000F0F1606801EB5001B1FBF0F0A0F1100186
:1036300041450AD901250120A4F86A0024F8680F41
:103640002846E6602661BDE8F08180B299E7000077
:1036500000800040F369FFCFFFF4FF110038014004
:10366000001002400044004000480040004C004070
:103670000024F400A4370008FFFC0F002DE9F047F8
:10368000994617460D4604464FF00008089E33E061
:10369000701C31D0FDF7B2FFA0EB0900B04218D882
:1036A000BEB120680168490726D5802D24D0402D61
:1036B00022D0C169C94309070DD4082505622046F7
:1036C000FFF778FEC4F8905084F884800120BDE8AC
:1036D000F0870320FBE7C069C04300050CD42168D4
:1036E0004FF4006008622046FFF764FE2020C4F813
:1036F000900084F88480ECE72068C06935EA000017
:1037000004D00020B842C3D00020E0E70120F9E750
:10371000FEE70907090E002804DB00F1E02080F82D
:103720000014704700F00F0000F1E02080F8141D35
:1037300070470000FDF770FFFFF764F8FFF72DFBFF
:10374000FFF764F9FFF744F9FFF7D2F9FFF718FA2A
:10375000FFF7F6F80020FCF797FF01210020FCF7A7
:10376000C1FF09484FF4E13101600021416001814E
:103770004181818101460020FCF768FF08B172B6E3
:10378000FEE7FFF747F8FEE7180200204FF0407011
:10379000E1EE100A70470000280020000020000021
:1037A0000D000006010002000400060008000A00E7
:1037B0000C0010002000400080000001000000000C
:1037C00000000000010203040607080900000000D1
:1037D00001020304F43700080000002098010000F3
:1037E000140200084438000898010020E80800008E
:1037F00070020008C113F402422032044A08096A28
:10380000480412086A101D7914191112406280B21E
:103810000109160C091E20690C2908092A38A91467
:10382000092218091A0C091240092628091A687178
:1038300012481A0804128014407D07B3080FAA101A
:04384000301324F429
:04000005080001D915
:00000001FF
