:020000040800F2
:1000000070080020790200080F240008F52100087C
:100010000D240008BB050008452E00080000000064
:100020000000000000000000000000001324000891
:10003000290600080000000011240008152400080B
:10004000930200089302000893020008930200083C
:10005000930200089302000893020008930200082C
:10006000930200089302000893020008930200081C
:10007000930200089302000893020008930200080C
:100080009302000800000000930200089302000899
:1000900093020008930200089302000893020008EC
:1000A00093020008912400089302000893020008BC
:1000B000A524000893020008930200089302000898
:1000C00093020008930200089302000893020008BC
:1000D00093020008392E00089302000893020008DA
:1000E0002B06000893020008930200089302000800
:1000F0009302000893020008930200080000000029
:1001000000000000930200080000000093020008B5
:100110009302000800000000930200089302000808
:10012000930200089302000893020008930200085B
:100130009302000800000000000000009302000885
:100140009302000893020008000000000000000075
:10015000000000000000000000000000000000009F
:1001600000000000000000000000000093020008F2
:1001700093020008000000000000000000000000E2
:1001800000000000930200080000000000000000D2
:10019000000000000000000000000000000000005F
:1001A0000000000000000000930200089302000815
:1001B0009302000893020008930200080000000068
:1001C0000000000093020008000000000000000092
:1001D000930200089302000800F002F800F03CF8D7
:1001E0000AA090E8000C82448344AAF10107DA4592
:1001F00001D100F031F8AFF2090EBAE80F0013F0A8
:10020000010F18BFFB1A43F001031847082D000027
:10021000282D0000103A24BF78C878C1FAD85207B8
:1002200024BF30C830C144BF04680C607047000070
:100230000023002400250026103A28BF78C1FBD8EF
:10024000520728BF30C148BF0B6070471FB502F08E
:1002500035FE1FBD10B510BD00F0CFF81146FFF7F9
:10026000F5FF02F001FE00F0EDF803B4FFF7F2FF36
:1002700003BC00F0F5F80000094880470948004732
:10028000FEE7FEE7FEE7FEE7FEE7FEE7FEE7FEE746
:10029000FEE7FEE704480549054A064B70470000A3
:1002A00081240008D9010008700200207008002095
:1002B000700400207004002053EA020C00F06980F2
:1002C0002DE9F04B4FF00006002B1FBFB3FA83F56A
:1002D00003FA05F424FA05F65E4012BF1643B2FA9B
:1002E00082F502FA05F4C5F120051EBF22FA05FCCD
:1002F00044EA0C04203556EA044C4FEA144418BF73
:10030000641C4FF000084FF00009904271EB030CA1
:1003100039D3002919BFB1FA81F701FA07F6B0FA0B
:1003200080F700FA07F6C7F120071EBF20FA07FC86
:1003300046EA0C062037B6FBF4FCA7EB0507103F96
:1003400007F01F0BCBF120060CFA0BFB2CFA06F67C
:1003500044BFB3460026202FA4BF5E464FF0000BDB
:100360005BEA060C08BF4FF0010B19EB0B09ABFB66
:10037000027C48EB0608C01B06FB02CC0BFB03CC3F
:1003800071EB0C01C1E70B46024641464846BDE809
:10039000F08B13B54FF000004FF00001AFF3008079
:1003A000BDE81C4070474FF0000200B5134694466C
:1003B0009646203922BFA0E80C50A0E80C50B1F1BD
:1003C0002001BFF4F7AF090728BFA0E80C5048BFD1
:1003D0000CC05DF804EB890028BF40F8042B08BF6F
:1003E000704748BF20F8022B11F0804F18BF00F86B
:1003F000012B7047704770477047754600F02CF826
:10040000AE4605006946534620F00700854618B001
:1004100020B5FFF73FFFBDE820404FF000064FF04A
:1004200000074FF000084FF0000B21F00701AC4629
:10043000ACE8C009ACE8C009ACE8C009ACE8C00948
:100440008D46704710B50446AFF300802046BDE8E6
:100450001040FFF70ABF000000487047100200205C
:1004600001491820ABBEFEE72600020070470000DD
:1004700070B500250E46012801D9AD1E11E000EB34
:10048000800101EB4011084800EB8100044600F0B8
:1004900095F82046314601F0E7FE10B16FF00300F9
:1004A00070BD284670BD00007C01002070B5044678
:1004B000114886B0C16C41F00101C164C06C0F4E9F
:1004C00000F00100059036F8140000900120019022
:1004D000002002900A4D0320039055F8240069463D
:1004E00000F042F936F8141055F82400002200F00C
:1004F00067FA06B0002070BD00100240CA2E000846
:100500001400002070470000024901EBC00000F019
:100510000DB900002800002030B50446214887B0FE
:10052000C26C42F00402C264C06C00F0040005908A
:100530001D4830F8140000900220029003901B48E0
:1005400050F8240041B34FF488110191694600F03E
:100550000BF91548001D50F824101448103000EB1A
:10056000C400054600F0DCF810480021083050F8BF
:100570002420284600F0F0F80C480B4D0C302D1FBD
:1005800050F824102857002200F086FA285700F06F
:1005900075FA07B0002030BD00210191694600F0D6
:1005A000E3F8F6E700100240CC2E00081800002007
:1005B00010B50020FFF7A6FF10BDFEE770B5194883
:1005C00086B0C16C41F00101C164C16C01F0010150
:1005D0000591C16C41F00101C164C16C01F00101E0
:1005E0000591C16D41F00101C165C06D022400F0AB
:1005F000010005900420CDE9000402AA01200C2589
:1006000082E831004FF090466946304600F0ACF881
:100610000820CDE9000469460495304600F0A4F8AE
:1006200006B070BD00100240704710B50020FFF703
:100630006BFFBDE8104001F0B5BD72B6FEE710B526
:1006400090F8253000210122022B03D00421C16340
:10065000012122E003681C6824F00E041C60836CF6
:100660001C6824F480741C6003681C6824F0010476
:100670001C6090F84430046C03F01F0302FA03F38B
:100680006360D0E913345C60436D33B11C6824F4BB
:1006900080741C60D0E916345C6080F8252000224C
:1006A00080F82420084610BD70B590F8252000245D
:1006B00001212346022A07D00422C26380F82510B4
:1006C00080F82430012429E00268156825F00E0521
:1006D00015600268156825F001051560826C1568C3
:1006E00025F48075156090F84420056C02F01F0217
:1006F00001FA02F26A60D0E913255560426D32B109
:10070000156825F480751560D0E91625556080F8C8
:10071000251080F82430816B01B18847204670BDD8
:1007200010B101600020704701207047026801236A
:10073000C2F3004102F01F029340064A02EB41114E
:100740000A681A4204D00B604068002800D00047B5
:1007500070470000140401400346002011B15860A6
:10076000012070475A6070472DE9F04FDFF8209262
:10077000002301260324A9F1040B85B00F2709F1FA
:10078000040AABF1040EFAE006FA03F52A407CD025
:1007900091F804C00CF0030CBCF1010F02D0BCF1C5
:1007A000020F26D1D0F808C0CDF800C04FEA430CA4
:1007B00004FA0CF8CDF810C0DDF800C02CEA080CE3
:1007C000CDF800C0D1F80C80DDF810C008FA0CF8A4
:1007D000DDF800C048EA0C08C0F80880D0F804C072
:1007E0002CEA050C0D79C5F300159D4045EA0C0572
:1007F00045600D79ED43AD070ED0C5684FEA43085B
:1008000004FA08FC25EA0C05D1F808C00CFA08FC2B
:100810004CEA050CC0F80CC00D7905F00305022D5B
:1008200016D1DD0800EB850CCDF808C0DCF820807F
:100830005D074FEAD56C07FA0CF528EA05080D6943
:1008400005FA0CF5DDF808C045EA0805CCF820509B
:1008500005684FEA430CCDF808C004FA0CFC25EA01
:100860000C0591F804C00CF00308DDF808C008FA84
:100870000CF848EA0508C0F800804D6815F4403FC0
:100880007CD0444DD5F860C000E077E04CF0010C1E
:10089000C5F860C02D6E23F0030C05F0010500952E
:1008A0003D4D65440295AD684FEA837C4FEA1C7864
:1008B00007FA08FC25EA0C05B0F1904F06D0DFF8E6
:1008C000DCC0604505D14FF0010C20E04FF0000C7A
:1008D0001DE0DFF8CCC0604502D14FF0020C16E0FD
:1008E000DFF8C0C0604502D14FF0030C0FE0DFF825
:1008F000B8C0604502D14FF0040C08E0DFF8ACC08E
:10090000604502D14FF0050C01E04FF0060C0CFAE7
:1009100008FC4CEA050C029DC5F808C0D9F8005047
:10092000CC46D1F8048095435FEAC82800D515432A
:10093000CCF80050DAF80050D446D1F80480954342
:100940005FEA882800D51543CCF80050DBF800504A
:10095000DC46D1F8048095435FEA883800D515431A
:10096000CCF80050DEF80050F446D1F804809543EE
:100970005FEAC83800D51543CCF800505B1C0A6804
:1009800032FA03F57FF400AF05B0BDE8F08F000048
:10099000080401400010024000000140000400482B
:1009A00000080048000C00480010004800140048EF
:1009B000426921EA02030A4043EA02418161704729
:1009C0000AB1816170478162704700000148806808
:1009D00070470000300000200248816842681144DE
:1009E000816070473000002010B50024032000F023
:1009F00073F8002000F008F808B1012401E000F0CD
:100A000025F8204610BD000070B50E4E05460024A6
:100A1000706898B14FF47A71B1FBF0F00A49096837
:100A2000B1FBF0F000F060FD40B9102D06D20022BD
:100A30002946501E00F030F8356000E001242046C1
:100A400070BD0000300000203C0000200A4882B049
:100A5000016E41F001010166016E01F0010100919A
:100A6000816D41F080518165806D00F08050009073
:100A700002B000F0A1B8000000100240002809DB1D
:100A800000F01F02012191404009800000F1E020A8
:100A9000C0F8001170470000F0B40E4B1B680C4604
:100AA000C3F30223C3F10705042D00D90425191D42
:100AB000072901D2002300E0DB1E012606FA05F11A
:100AC000491E214099409E40761E16403143F0BC9D
:100AD00002F0B9B90CED00E0064900F00702086821
:100AE0004FF6FF03184040EA0220034A1043086013
:100AF000704700000CED00E00000FA052B492C4B7C
:100B00000A6832214A432B4940B1B0F5007F08689A
:100B100029D020F4C06040F480602CE00868C0F365
:100B20004120022804D051F8800F20F4807022E088
:100B3000D1F8800020F48070C1F88000086820F4AB
:100B4000C06040F400700860B2FBF3F0401C00E0AD
:100B5000401E4A69520501D50028F9D1486940056F
:100B60000AD503207047C0F34120022806D051F86F
:100B7000800F40F48070086000207047D1F880003A
:100B800040F48070C1F88000086820F4C06040F430
:100B900000700860B2FBF3F0401C00E0401E4A69A0
:100BA0005205DBD50028F9D1D8E700003C00002031
:100BB00040420F00007000400248816841F48041CB
:100BC00081607047007000402DE9F84304460068DA
:100BD00000269D4D00035ED5A86D0027C00008D4F7
:100BE000A86D40F08050A865A86D012700F08050E6
:100BF0000090DFF85892D9F8001041F48071C9F8DC
:100C00000010FFF7E3FE804606E000BFFFF7DEFEC0
:100C1000A0EB080002282BD8D9F80000C005F5D5B4
:100C2000D5F8900010F4407014D0216C814211D09E
:100C3000D5F89000D5F8901020F4407041F4803140
:100C4000C5F89010D5F8901021F48031C5F89010B7
:100C5000C5F89000C00711D0FFF7B8FE804641F2FA
:100C6000883907E0FFF7B2FEA0EB0801494501D93A
:100C700003260BE0D5F890008007F3D5D5F8900057
:100C8000216C20F440700843C5F890001FB1A86D96
:100C900020F08050A8652078C00707D0D5F88800DC
:100CA000616820F003000843C5F8880020788007B9
:100CB00007D5D5F88800A16820F00C000843C5F8D6
:100CC00088002078400707D5D5F88800E16820F033
:100CD00030000843C5F888002078000707D5D5F80C
:100CE0008800216920F0C0000843C5F888002078FA
:100CF000800607D5D5F88800616920F44060084374
:100D0000C5F888002078400607D5D5F88800A16985
:100D100020F440500843C5F888002078000607D525
:100D2000D5F88800E16920F440400843C5F8880000
:100D30002088C00507D5D5F88800216A20F4403006
:100D40000843C5F888002088800507D5D5F88800B5
:100D5000616A20F440200843C5F8880020884005D7
:100D60000FD5D5F88800A16A20F440100843C5F8D3
:100D70008800A06AB0F5801F03D1E86840F48010B5
:100D8000E860208800050FD5D5F88800E16A20F4D6
:100D900040000843C5F88800E06AB0F5800F03D131
:100DA000E86840F48010E8602088C0040FD5D5F8CA
:100DB0008800216B20F040700843C5F88800206B44
:100DC000B0F1807F03D1E86840F48010E8602088AB
:100DD0004FF0006180040ED5D5F88800626B20F0DA
:100DE00040601043C5F88800606B884203D1E86812
:100DF00040F48010E860208840040ED5D5F88800C3
:100E0000A26B20F040601043C5F88800A06B8842B8
:100E100003D1E86840F48010E860208800040FD512
:100E2000D5F88800E16B20F040500843C5F88800F1
:100E3000E06BB0F1805F03D1E86840F48030E86097
:100E40003046BDE8F883000000100240007000400A
:100E50002DE9F0470E4605004FF0000725D0DFF8DA
:100E6000AC81D8F8000000F00F00B0420CD2D8F8E6
:100E7000001021F00F013143C8F80010D8F800002D
:100E800000F00F00B04210D12968614CC80741F250
:100E9000883A5AD06868DFF87C91032808D0022885
:100EA00020682DD0400500282CDB0120BDE8F0870C
:100EB00020688001F9D5E06800F00302E068C0F323
:100EC0000310401C032A19D0534A00BFB2FBF0F0B4
:100ED000E268C2F306225043E268C2F34162521C48
:100EE0005200B0FBF2F0484517D9A06810F0F00F9F
:100EF0000CD0880711D5A86840B10EE0474AE5E755
:100F00008003D0E700F0B6F8484506D9A06820F085
:100F1000F00040F08000A0608027A068696820F0A1
:100F200003000843A060FFF751FD814606E000BFC3
:100F3000FFF74CFDA0EB090151453AD8A06869685C
:100F400000F00C00B0EB810FF2D12868810714D5B6
:100F5000400703D5A06840F4E060A060287800074F
:100F600005D5A06820F4605040F4E060A060A0685F
:100F7000A96820F0F000084304E0802F03D1A068A6
:100F800020F0F000A060D8F80010404601F00F01FA
:100F9000B14216D9016821F00F0131430160FFF71A
:100FA00015FD074607E000BFFFF710FDC11B5145C7
:100FB00001D903207AE7D8F8000000F00F00B04212
:100FC000F2D12878400705D5A068E96820F4E060F0
:100FD0000843A0602878000706D5A068296920F496
:100FE000605040EAC100A06000F044F8A1680C4ADB
:100FF000C1F30311515C01F01F01C84009490860A9
:1010000009480068BDE8F047FFF7FEBC0020024039
:101010000010024000B4C4040024F40000366E0145
:10102000FC2E00083C000020300000200548064946
:1010300000688968054AC1F30221515C01F01F0173
:10104000C84070473C000020001002400C2F0008F0
:101050000548064900688968054AC1F3C221515C08
:1010600001F01F01C84070473C0000200010024002
:101070000C2F0008184910B58868C0F38102174882
:10108000012A0BD08A68164BC2F38102022A06D0CD
:101090008A68C2F38102032A03D0002010BD1846DB
:1010A00010BDCA6802F00304CA68C2F30312521CDE
:1010B000032C02D0B0FBF2F001E0B3FBF2F0CA68FF
:1010C000C968C2F306225043C1F34161491C49007B
:1010D000B0FBF1F010BD0000001002400024F4004D
:1010E00000366E012DE9F84304007AD02078F84DDF
:1010F000C00747D0A868E96800F00C0001F00301C0
:101100000C2802D0082817D001E0032914D0606809
:10111000B0F5803F17D0B0F5A02F286817D020F485
:1011200080302860286820F4802028606068E0B162
:10113000FFF74CFC064614E02868800322D560685F
:101140000028D2D01EE0286840F48030EDE740F45B
:1011500080202860F7E700BFFFF738FC801B642879
:1011600070D828688003F7D50CE0FFF72FFC0646FF
:1011700005E000BFFFF72AFC801B6428F0D8286830
:101180008003F7D4207880074CD5A868E96800F080
:101190000C0001F003010C2802D004280DD001E05E
:1011A00002290AD0E068002828682BD040F480701B
:1011B0002860FFF70BFC064619E02868400502D5B9
:1011C000E068002891D06868217C20F0FE4040EA69
:1011D00001606860BF480068FFF716FC002800D176
:1011E00020E072E1FFF7F2FB801B0228B8D82868E4
:1011F0004005F7D56868217C20F0FE4040EA016098
:1012000068600FE020F480702860FFF7DFFB06467F
:1012100005E000BFFFF7DAFB801B0228A0D8286892
:101220004005F7D42078000729D560690028D5F853
:10123000940013D040F00100C5F89400FFF7C6FBFE
:10124000064606E090E000BFFFF7C0FB801B0228C7
:1012500086D8D5F894008007F6D510E020F001007C
:10126000C5F89400FFF7B2FB064604E0FFF7AEFBBB
:10127000801B022878D8D5F894008007F6D420780F
:10128000400761D5A86D0026C00008D4A86D40F0C5
:101290008050A865A86D012600F0805000908E480F
:1012A0000168C90511D40168804641F4807101606C
:1012B000FFF78CFB074604E0FFF788FBC01B022802
:1012C00052D8D8F80000C005F6D5A068012815D07E
:1012D0000528D5F8900016D020F00100C5F8900040
:1012E000D5F8900020F00400C5F89000A06841F205
:1012F0008838B8B1FFF76AFB07460EE0D5F89000D2
:1013000040F00100F0E740F00400C5F89000F5E778
:10131000FFF75CFBC11B414526D8D5F8900080073C
:10132000F6D50CE0FFF752FB074604E0FFF74EFB53
:10133000C11B414518D8D5F890008007F6D41EB1DE
:10134000A86D20F08050A8652078800629D5A06976
:101350000028D5F8980013D040F00100C5F8980097
:10136000FFF734FB064606E075E000BFFFF72EFBF3
:10137000801B02286FD8D5F898008007F6D510E0BA
:1013800020F00100C5F89800FFF720FB064604E0B6
:10139000FFF71CFB801B02285DD8D5F8980080075A
:1013A000F6D4E069F0B3A968C1F3810103295DD0E7
:1013B0000228286820F08070286003D0FFF706FB21
:1013C00004464BE0FFF702FB064604E0FFF7FEFA97
:1013D000801B02283FD828688001F7D4F4E908016F
:1013E0006FF00F0202EB01110843218A52044908F1
:1013F00002EB4151A26841EA02210843217D4FF0EE
:101400007E42490802EB41610843217B40EAC1600A
:10141000E968324A11400843E860286840F080706B
:10142000286000E05EE0E86840F08070E860FFF768
:10143000CDFA044605E000BFFFF7C8FA001B0228FA
:1014400009D828688001F7D54CE000BFFFF7BEFA45
:10145000001B022802D90320BDE8F8832868800118
:10146000F4D4E8681E490840E8603BE00128F3D066
:10147000E868226A00F00301914226D1616A00F017
:10148000F0020901103991421FD1A26A00F4FE4115
:10149000B1EB022F19D194F82C2000F07841B1EB78
:1014A000C26F12D1218E00F4C00249084905A1F58E
:1014B0000011914209D194F8341000F0C06049083D
:1014C0004906A1F1007181420CD00120C4E700005F
:1014D0000010024030000020007000400C809F018E
:1014E000FCFFEEFE0020B7E710B5401EB0F1807F94
:1014F00001D3012010BD4FF0E02460610F2160177F
:1015000001F0A1FC0020A06107202061002010BD97
:10151000704770477047704770477047F0B590F854
:101520003C20012A3AD0012580F83C50022280F864
:101530003D2003685A689C68194E1A4FB34201D087
:10154000BB4204D122F4700C4A6842EA0C02DFF874
:1015500058C002EA0C02D1F800C04CEA020CC3F8F1
:1015600004C00268B2420DD0B2F1804F0AD00F4BD6
:101570009A4207D00E4B9A4204D0BA4202D00D4B89
:101580009A4204D1896824F080031943916080F85D
:101590003D50002180F83C100846F0BD0220F0BD0F
:1015A000002C0140003401408FFFFFFD000400408B
:1015B0000008004000400140704710B5040003D00F
:1015C00094F83D0010B107E0012010BD002084F820
:1015D0003C00204600F022F8022084F83D00211D46
:1015E000206800F069FF012084F8480084F83E007C
:1015F00084F83F0084F8400084F8410084F84200F9
:1016000084F8430084F8440084F8450084F84600D8
:1016100084F8470084F83D00002010BD08B5154A45
:101620000168154891420ED1016E41F400610166D6
:10163000006E002200F40060009011461920FFF7B0
:101640002BFA192010E0B1F1804F11D1816D41F0DA
:1016500001018165806D002200F0010000901146BB
:101660001C20FFF719FA1C20BDE80840FFF706BA56
:1016700008BD0000002C01400010024070B5044677
:1016800090F83C000025012814D0012684F83C6025
:10169000022084F83D0022689068364B184020F400
:1016A0007F409060086870282ED010DC10F00F0F7B
:1016B00003D021E04FF0020070BD4FEA2012072A4C
:1016C0001AD2DFE802F0525252524A3840002A4BF6
:1016D000C21A984249D009DCB0F5805F0DD0B0F550
:1016E000005F1CD0B0F1101F06D13EE0102A3CD0A4
:1016F000202A3AD0502A38D0012584F83D600020B5
:1017000084F83C00284670BDCB68D1E901212068EF
:1017100000F030FF2068816841F0770109E0CB6874
:10172000D1E90121206800F025FF2068816841F49B
:1017300080418160E1E7CA684968206801F0C4F827
:101740005021206806E0CA684968206801F0CDF899
:101750006021206800F018FFCFE7CA684968206858
:1017600001F0B2F840212068F4E7226801461046F3
:10177000F0E7000088FFCEFF2000100070472DE941
:10178000F04104460068C66805694FF00007A907E4
:1017900013D5B10711D5F91E01610120207720680A
:1017A00080698007204602D0FFF7E8FF04E000F0E0
:1017B000DFF8204600F0A1F92777680716D57007F3
:1017C00014D521686FF0040008610220207720689A
:1017D000806910F4407F204602D0FFF7CFFF04E07D
:1017E00000F0C6F8204600F088F92777280715D5BD
:1017F000300713D521686FF00800086104202077B6
:101800002068C0698007204602D0FFF7B7FF04E0D8
:1018100000F0AEF8204600F070F92777E80616D5FC
:10182000F00614D521686FF01000086108202077B9
:101830002068C06910F4407F204602D0FFF79EFF69
:1018400004E000F095F8204600F057F92777E80704
:1018500008D0F00706D021686FF00100086120462B
:1018600000F04CF9280601D4A80408D5300606D5A6
:1018700021686FF4025008612046FFF74AFEE80530
:1018800008D5300606D521686FF4807008612046BF
:10189000FFF73EFE680608D5700606D521686FF092
:1018A00040000861204600F02AF9A80608D5B006D5
:1018B00006D521686FF0200008612046FFF72AFE58
:1018C000E80208D5F00206D521686FF4801008619F
:1018D0002046FFF721FEA80208D5B00206D52168F0
:1018E0006FF4001008612046FFF715FE680208D566
:1018F000700206D521686FF4800008612046FFF76A
:101900000CFE28020AD5300208D521686FF40000C9
:1019100008612046BDE8F041FFF74EBEBDE8F0810A
:1019200010B586B0044614216846FEF73CFD2068D9
:10193000B0F1804F17D10D48C16C41F00101C16475
:10194000C06C694600F0010005904FF40040009023
:1019500002200190002002900390012004904FF09B
:101960009040FEF701FF06B010BD000000100240DD
:10197000704770B5044690F83C0000260D460128DB
:101980000BD0012084F83C000C2A4AD007DC82B13D
:10199000042A20D0082A06D131E0022070BD102A86
:1019A00053D0142A63D00126002084F83C0030462E
:1019B00070BD206800F0F2FD2068816941F00801E7
:1019C00081612068816921F0040181612068816959
:1019D0002A69114311E0206800F02EFE2068816919
:1019E00041F4006181612068816921F48061816135
:1019F000206881692A6941EA02218161D4E720686F
:101A000000F062FE2068C16941F00801C1612068F0
:101A1000C16921F00401C1612068C1692A691143CB
:101A200011E0206800F098FE2068C16941F400616F
:101A3000C1612068C16921F48061C1612068C16908
:101A40002A6941EA0221C161AEE7206800F0CCFEBC
:101A50002068016D41F0080101652068016D21F0E9
:101A6000040101652068016D2A69114311E02068B5
:101A700000F0F2FE2068016D41F40061016520680C
:101A8000016D21F4806101652068016D2A6941EAD8
:101A90000221016588E710B5040003D094F83D00E9
:101AA00010B107E0012010BD002084F83C00204662
:101AB00000F022F8022084F83D00211D206800F08B
:101AC000FBFC012084F8480084F83E0084F83F00C5
:101AD00084F8400084F8410084F8420084F8430010
:101AE00084F8440084F8450084F8460084F84700F0
:101AF00084F83D00002010BD704770477047704764
:101B000090F88410012918D0012180F88410242134
:101B1000C0F8881001680A680B6823F001030B60A5
:101B200022F0005100224266036819602021C0F8AB
:101B3000881080F884201046704702207047704754
:101B4000704770B5044690F8840001281DD001202C
:101B500084F884002420C4F888002068056802689E
:101B600022F0010202602068826822F060620A436B
:101B70008260204600F0CCFE206805602020C4F87A
:101B80008800002084F8840070BD022070BD70B50C
:101B9000044690F8840001281DD0012084F88400B8
:101BA0002420C4F8880020680568026822F0010239
:101BB00002602068826822F060420A438260204608
:101BC00000F0A6FE206805602020C4F888000020F0
:101BD00084F8840070BD022070BD70477047704764
:101BE0002DE9F04103680446D86919689A6840F6FF
:101BF0000F0528424FF000054FF002060AD1870674
:101C00007ED501F0200702F0805C57EA0C0777D000
:101C1000616F42E1B64FDFF8DCC2174001EA0C0CFD
:101C200057EA0C0C6CD05FEAC07C0CD05FEAC15C58
:101C300009D54FF0010CC3F820C0D4F8903043F020
:101C40000103C4F89030830709D5D30707D0236870
:101C50001E62D4F8903043F00403C4F89030430778
:101C60000AD5D30708D0266804233362D4F890300D
:101C700043F00203C4F8903003070CD501F02003B1
:101C80003B4308D0266808233362D4F8903043F0F1
:101C90000803C4F8903003050BD54B0109D526681D
:101CA0004FF400633362D4F8903043F02003C4F85B
:101CB0009030D4F89030002B3DD0800609D501F04B
:101CC000200002F08051084303D0616F09B1204623
:101CD0008847D4F8900021688968490602D410F03A
:101CE000280F2AD0204600F0F9FE206880684006C0
:101CF0001ED52068083050E8001F21F0400100E0A8
:101D000021E040E80012002AF3D1D4F8800078B135
:101D100079498163D4F88000FEF7C6FC00280AD018
:101D2000D4F88000816B00E02046BDE8F041084710
:101D30002046FFF754FFBDE8F0812046FFF74FFF34
:101D4000C4F89050F7E7D4F86CC02027BCF1010F1D
:101D50007ED15FEAC06C7BD55FEAC16C78D510207C
:101D6000186220688068400651D5D4F880100A684F
:101D700050680004000C3ED0B4F85C3083423AD97D
:101D8000A4F85E000868006880062CD4216851E839
:101D9000000F20F4807041E80002002AF6D120688C
:101DA000083050E8001F21F0010140E80012002A2D
:101DB000F5D12068083050E8001F21F0400140E8CC
:101DC0000012002AF5D1C4F88C70E566216851E84C
:101DD000000F20F0100041E80002002AF6D1D4F8EC
:101DE0008000FEF72CFC2667B4F85C00B4F85E10A7
:101DF000401A81B207E0B4F85C1081429BD11068B0
:101E0000800698D526672046FFF799FE93E7B4F839
:101E10005C00B4F85E10401A81B2B4F85E0000288D
:101E200089D0002987D0226852E8000F20F49070F2
:101E300042E80003002BF6D12D4BDB43206808302D
:101E400050E8002F1A4040E8002CBCF1000F00E0E1
:101E50000EE0F3D1C4F88C70E5666567206850E841
:101E6000002F22F0100240E80023002BF6D1C9E732
:101E7000C60209D5560207D54FF4801018622046D5
:101E8000BDE8F041FFF7AABE03060AD501F08003C2
:101E900002F40002134304D0A16F00297FF444AF81
:101EA00049E7420611D54A060FD52046016851E898
:101EB000002F22F0400241E80023002BF6D1C0F8A9
:101EC0008870856700F061F935E7020206D54A009F
:101ED00004D52046BDE8F041FFF77FBEC00195D58F
:101EE000002993DA2046BDE8F041FFF729BE000043
:101EF0000100001020010004C92A000810B50400E8
:101F000003D0D4F8880010B107E0012010BD0020F4
:101F100084F88400204600F027F82420C4F88800C4
:101F20002068016821F001010160A06A10B120461B
:101F300000F010FD204600F0FBFD0128E6D02068EF
:101F4000416821F4904141602068816821F02A01B4
:101F500081602068016841F0010101602046BDE810
:101F6000104000F05BBD000010B598B0044614218D
:101F700011A8FEF718FA44216846FEF714FA1A4928
:101F8000206888422ED101200024CDE90004684653
:101F9000FEF71AFE08B1FEF750FB1448016E41F43B
:101FA00080410166016E01F480411691C16C41F0DF
:101FB0000401C164C06C11A900F004001690302027
:101FC00011900220CDE912040720CDE91440084801
:101FD000FEF7CAFB002211462520FEF75DFD2520F5
:101FE000FEF74CFD18B010BD003801400010024053
:101FF000000800482DE9F84F0446D0F88C009B46B5
:1020000016460D46202802D00220BDE8F88FC5B143
:10201000BEB10027C4F890702220C4F88C00E76697
:102020002034FEF7D3FCA6878246E68754F8180CC6
:102030004FF48053FF21203C984207D1226912B10E
:1020400019E00120E1E740F2FF1114E07F2280B1A6
:10205000B0F1805F12D0A4F8607000BFB4F8607077
:102060004FF02008984201D1206970B12E4600251A
:102070000CE0266936B9A4F86010EFE7216909B1D0
:102080003F21F8E7A4F86020E8E7002607F0FF0901
:10209000B4F85E00F0B15346002220212046CDF86E
:1020A00000B000F07FFE18B1C4F88C800320ACE7CC
:1020B0002068406A56B100EA090006F8010B00BF2B
:1020C000B4F85E00401EA4F85E00E1E7384025F851
:1020D000020BF5E7C4F88C80002096E72DE9F84361
:1020E0000446D0F88800984616460D46202802D0AF
:1020F0000220BDE8F883A5B19EB10020C4F890008D
:102100002120C4F888001834FEF760FCA6878146B9
:10211000E68754F8100C2027183CB0F5805F02D0F9
:1021200003E00120E5E7206910B12E46002510E00C
:1021300000260EE08021204600F034FEC0B9DEB15A
:1021400016F8010B21688862B4F85600401EA4F806
:102150005600B4F856004B464FF00002CDF8008010
:102160000028E7D14FF04001204600F01BFE40B1AF
:10217000C4F888700320BCE735F8020BC0F30800F0
:10218000E0E7C4F888700020B3E7704704484FF4D4
:1021900083714160322181605721C1607047000026
:1021A000000000204FF0FF33012202490248FFF7F0
:1021B00095BF000000000020E80000207047704735
:1021C0000A4C4FF0FF364FF0904759253346012215
:1021D00006490748FFF70EFF20784828F6D120214E
:1021E0003846FEF7E5FB2570F0E70000010000200F
:1021F000E8000020FEE7000000B587B01421684623
:10220000FEF7D1F81648C16C41F00401C164C16CFD
:1022100001F004010591C16C41F02001C164C16C61
:1022200001F020010591C16C41F00101C164C16C54
:1022300001F001010591C16C41F00201C164C06C63
:10224000694600F0020005904FF4E0700090002015
:10225000019002900348FEF787FA07B000BD000026
:102260000010024000040048094A126802600A682F
:1022700042600C2242614A8902614A6882600A898E
:10228000C260898981614FF40041C161FFF736BEA8
:102290001C00002010B588B000241948059406944D
:1022A000039404940094019414490294016044F24C
:1022B0006721C0E9011442F20F71C0E903144461BF
:1022C0008461FFF77AF908B1FEF7B7F94FF480504F
:1022D000039003A90A48FFF7D1F908B1FEF7ADF959
:1022E00000940194694606480294FFF717F9002804
:1022F00001D0FEF7A2F908B010BD0000002C01408B
:102300005000002010B58EB0002407940894099462
:102310000A940B940C941C2168460D94FEF743F824
:102320001D484FF080410160A921C0E901141B49FB
:10233000C0E903148461FFF740F908B1FEF77DF9A5
:102340004FF48050079007A91348FFF797F908B199
:10235000FEF773F91048FFF79EFB08B1FEF76DF921
:102360000B940BA90C480D94FFF7D8F808B1FEF7B1
:1023700064F9602000900A48CDE901040022694612
:1023800005480494FFF7F5FA08B1FEF756F902483C
:10239000FFF7C6FA0EB010BD9C00002040420F00AF
:1023A00020A10700184810B5164901604FF4E1312B
:1023B0004160002181600C22C160C0E9041281618A
:1023C000C161016241628162FFF798FD08B1FEF7C9
:1023D00034F900210C48FFF7DAFB08B1FEF72DF9BC
:1023E00000210948FFF7ADFB08B1FEF726F90648C2
:1023F000FFF786FB002803D0BDE81040FEF71DB9AB
:1024000010BD000000380140E8000020FEE7FEE7B4
:1024100070477047FEF7E0BA00B593B038216846C0
:10242000FDF7C1FF14210EA8FDF7BDFF0020FEF748
:1024300065FB0220C1010391402104910421CDE9F3
:10244000080100905521CDE90A1007900C900D90DD
:102450006846FEF747FE08B172B6FEE70F200E9001
:1024600003200F90002010901190129004210EA8CC
:10247000FEF7EEFC002801D072B6FEE713B000BDF7
:102480000248016841F470010160704788ED00E086
:1024900010B50348FFF773F9BDE81040FFF78EBE93
:1024A0005000002010B50348FFF769F9BDE810405F
:1024B000FFF785BE9C0000202DE9F0430268264B03
:1024C000264D274E274C4FF08049984207D048456B
:1024D00005D0A84203D0B04201D0A04203D122F0DF
:1024E00070074A683A43204FDFF880C0DFF88080E9
:1024F00098420DD048450BD0A84209D0B04207D031
:10250000A04205D0B84203D0604501D0404503D178
:1025100022F44075CA682A434D6922F080022A439A
:1025200002608A68C2620A688262984207D0A0424A
:1025300005D0B84203D0604501D0404501D10969BA
:102540000163012141610169C90703D0016921F0DB
:1025500001010161BDE8F083002C0140000400404E
:1025600000080040003401400040014000440140A8
:102570000048014010B5846842EA032224F47F44F5
:102580000A432243826010BD8268034B1A400A430B
:1025900042F00701816070478FFFCFFF2DE9F043C4
:1025A000056A026A22F001020262436882691C4CD9
:1025B00025F0020522400C6822F0030214438A68C9
:1025C000194E2A43174D194FDFF864C0DFF86490A5
:1025D000A84207D0B04205D0B84203D0604501D030
:1025E000484506D122F00808CA6842EA080222F0EB
:1025F0000402A84207D0B04205D0B84203D06045DB
:1026000001D0484505D14D6923F440731D438B69C2
:102610002B4343608461496841630262BDE8F083F3
:102620008FFFFEFF002C01400034014000400140BC
:102630000044014000480140F0B5056A026A22F0FA
:102640001002026242688369194C1B4E23400C68D9
:1026500023F4407343EA042425F020038D6843EA01
:102660000513144DA84201D0B04206D1CF6823F023
:10267000800343EA071323F04003A8420AD0B04284
:1026800008D00E4DA84205D00D4DA84202D00D4DE8
:10269000A84207D14D6922F4406242EA85028D6961
:1026A00042EA850242608461496881630362F0BD49
:1026B000FF8FFFFE002C014000340140004001402C
:1026C0000044014000480140F0B5056A026A22F466
:1026D000807202624368C269194C1B4E22400C682A
:1026E00022F00302144325F400728D6842EA0522A9
:1026F000144DA84201D0B04206D1CF6822F4006246
:1027000042EA072222F48062A8420AD0B04208D0EE
:102710000E4DA84205D00E4DA84202D00D4DA84244
:1027200007D14D6923F4405343EA05138D6943EA09
:1027300005134360C4614968C1630262F0BD0000D3
:102740008FFFFEFF002C014000340140004001409B
:102750000044014000480140F0B5056A026A22F4D5
:10276000805202624268C369194C1B4E23400C68B8
:1027700023F4407343EA042425F400538D6843EAAC
:102780000533144DA84201D0B04206D1CF6823F4DE
:10279000004343EA073323F48043A8420AD0B042FF
:1027A00008D00E4DA84205D00D4DA84202D00D4DC7
:1027B000A84207D14D6922F4404242EA85128D6950
:1027C00042EA85124260C461496801640362F0BD57
:1027D000FF8FFFFE002C014000340140004001400B
:1027E000004401400048014030B5056A026A22F405
:1027F000803202624268036D114C23400C681C4316
:1028000025F400330D8943EA05430E4DA8420BD051
:102810000D4DA84208D00D4DA84205D00C4DA84240
:1028200002D00C4DA84204D14D6922F4803242EA14
:1028300005224260046549688164036230BD00007E
:102840008FFFFEFF002C014000340140004001409A
:10285000004401400048014030B5046A026A22F495
:10286000801202624268036D114D24F400142B4063
:102870000D6843EA05230D8944EA05540D4DA8422D
:102880000BD00D4DA84208D00C4DA84205D00C4DE0
:10289000A84202D00B4DA84204D14D6922F48022F7
:1028A00042EA8522426003654968C164046230BD22
:1028B000FF8FFFFE002C014000340140004001402A
:1028C000004401400048014010B5036A046A24F046
:1028D00001040462846924F0F00444EA021423F041
:1028E0000A020A438461026210BD10B5036A046AD9
:1028F00024F010040462846923F0A00324F47044DB
:1029000044EA023243EA01118261016210BD000013
:1029100030B5416EB9B1026891689268C1F3426105
:102920000B4B520F9C5CE50003F10804A25CB5FB65
:10293000F2F2A0F86A205A5C615CD200B2FBF1F1BD
:10294000A0F8681030BD0121A0F86A10F8E7000077
:10295000EC2E000890F82810090706D501684A688F
:10296000836B22F400421A434A6090F82810C9078A
:1029700006D001684A68C36A22F400321A434A60EA
:1029800090F82810890706D501684A68036B22F47D
:1029900080321A434A6090F82810490706D501682A
:1029A0004A68436B22F480221A434A6090F8281048
:1029B000C90606D501688A68C36B22F480521A439F
:1029C0008A6090F82810890606D501688A68036C29
:1029D00022F400521A438A6090F82810490611D553
:1029E00001684A68436C22F480121A434A60416CC1
:1029F000B1F5801F06D101684A68836C22F4C002D9
:102A00001A434A6090F82810090606D501684A68FA
:102A1000C06C22F4002202434A6070472DE9F8435B
:102A200000260446C0F89060FDF7D0FF804620687D
:102A300000684FF0200500076FF07E4713D543462E
:102A4000002229042046009700F0ACF958B1216813
:102A500051E8000F20F0800041E80002002AF6D182
:102A6000C4F8885021E020680068400722D543461A
:102A700000224FF480012046009700F093F9C8B17E
:102A8000216851E8000F20F4907041E80002002A0C
:102A9000F6D12068083050E8001F21F0010140E81D
:102AA0000012002AF5D1C4F88C5084F88460032009
:102AB000BDE8F883C4F88850C4F88C5044F86C6FB3
:102AC000666026760020F3E710B5806A0021A0F842
:102AD0005E10A0F85610FFF782F810BD10B502681E
:102AE00052E8001F21F4907142E80013002BF6D148
:102AF0000E4B0268083252E8001F194042E80014E9
:102B0000002CF6D1C16E012908D1016851E8002FCF
:102B100022F0100241E80023002BF6D12021C0F85A
:102B20008C100021C166416710BD0000FEFFFFEF61
:102B30002DE9F0410446016880682269E369104389
:102B4000626900251A431043DFF82CC20A688B4BD8
:102B50001A4002430A6020684168E26821F440514B
:102B6000114341602168A069614501D0226A104388
:102B70008A68834B1A4002438A602068C16A626A8D
:102B800021F00F011143C1627E4923687E488B42C8
:102B90000DD1D0F8880010F0030006D0012855D0E0
:102BA000022842D003283FD152E001203DE077497E
:102BB0008B420BD1D0F8880010F00C0035D00428DF
:102BC00033D0082840D00C282ED141E070498B42E8
:102BD0000BD1D0F8880010F0300026D0102835D066
:102BE000202831D030281FD132E06A498B420BD1E6
:102BF000D0F8880010F0C00017D0402826D08028D8
:102C000022D0C02810D123E063450DD1D0F8880030
:102C100010F4406009D0B0F5806F17D0B0F5006FA8
:102C200012D0B0F5406F13D010205B495B4F0026E7
:102C30004FF4004263453BD160B1022813D0042811
:102C40000BD0082872D10DE00220EEE70420ECE75B
:102C50000820EAE7FEF7EAF901E0FEF70BFA0100C7
:102C600001D17CE01146606A37F810206768B1FB3B
:102C7000F2F007EB4703834270D8B0EB073F6DD803
:102C8000002308461946FDF717FB090241EA1061C7
:102C900002027808101871413A460023FDF70CFB38
:102CA0003F4AA0F54071914258D82168C86056E06B
:102CB000E3694FF6EF7893422CD109284ED2DFE832
:102CC00000F00508114D0D4D4D4D1000FEF7AEF909
:102CD00001E0FEF7BDF9010004D140E0FEF7CAF9BA
:102CE000F9E71146606A37F81000B1FBF0F04100D7
:102CF000606801EB5001B1FBF0F0A0F1100141451B
:102D00002CD84FF6F0710140C0F342000143206817
:102D1000C16024E0092821D2DFE800F00509122073
:102D20000E2020201100FEF781F902E016E0FEF7E8
:102D30008FF9010004D112E0FEF79CF9F9E7114682
:102D4000606A37F81000B1FBF0F1606801EB5001E8
:102D5000B1FBF0F0A0F1100141450AD90125012095
:102D6000A4F86A0024F8680F2846E6602661BDE8EA
:102D7000F08180B299E7000000800040F369FFCF46
:102D8000FFF4FF11003801400010024000440040F1
:102D900000480040004C00400024F400D42E0008FD
:102DA000FFFC0F002DE9F047994617460D460446F3
:102DB0004FF00008089E33E0701C31D0FDF706FE8E
:102DC000A0EB0900B04218D8BEB1206801684907DD
:102DD00026D5802D24D0402D22D0C169C9430907B2
:102DE0000DD4082505622046FFF778FEC4F8905000
:102DF00084F884800120BDE8F0870320FBE7C069E8
:102E0000C04300050CD421684FF4006008622046DE
:102E1000FFF764FE2020C4F8900084F88480ECE77B
:102E20002068C06935EA000004D00020B842C3D051
:102E30000020E0E70120F9E70148FEF7D1BE0000DD
:102E4000E8000020FEE70907090E002804DB00F176
:102E5000E02080F80014704700F00F0000F1E0203F
:102E600080F8141D70470000FDF7BEFDFFF78EF9D6
:102E7000FFF7D2FAFFF7C0F9FFF70CFAFFF742FAB3
:102E8000FFF790FA0020FDF711FB01210020FDF76C
:102E900043FB09484FF4E1310160002141600181A9
:102EA0004181818101460020FDF7E2FA08B172B646
:102EB000FEE7FFF785F9FEE7400000204FF0407085
:102EC000E1EE100A704700002800200000200000FA
:102ED0000D000006010002000400060008000A00C0
:102EE0000C001000200040008000000101010103DF
:102EF00007010000080402040801010100000000AD
:102F00000000000001020304060708090000000099
:102F100001020304342F00080000002040000000DC
:102F200014020008742F0008400000203008000040
:102F300030020008480000000601000032000000D6
:102F400000000000000000000000004800080048E9
:102F500000800040B10500080F00000000000000E4
:102F60000000000010000000010000000000000050
:042F70000024F40045
:04000005080001D915
:00000001FF
