:020000040800F2
:10000000E80E0020790200084D2C00084327000864
:10001000E92A00080F0600089D38000800000000CB
:10002000000000000000000000000000512C00084B
:1000300037070008000000004F2C0008532C000870
:10004000930200089302000893020008930200083C
:10005000930200089302000893020008930200082C
:100060009302000893020008930200087D0600082E
:100070008906000893020008930200089302000812
:100080009302000800000000930200089302000899
:1000900093020008930200089302000893020008EC
:1000A00093020008930200089302000893020008DC
:1000B000D12C0008E52C00089302000893020008E8
:1000C00093020008930200089302000893020008BC
:1000D0009302000889380008930200089302000880
:1000E00039070008930200089302000893020008F1
:1000F0009302000893020008930200080000000029
:1001000000000000930200080000000093020008B5
:100110009302000800000000F92C00089302000878
:10012000930200089302000893020008930200085B
:100130009302000800000000000000009302000885
:100140009302000893020008000000000000000075
:10015000000000000000000000000000000000009F
:1001600000000000000000000000000093020008F2
:1001700093020008000000000000000000000000E2
:1001800000000000930200080000000000000000D2
:10019000000000000000000000000000000000005F
:1001A0000000000000000000930200089302000815
:1001B0009302000893020008930200080000000068
:1001C0000000000093020008000000000000000092
:1001D000930200089302000800F002F800F03CF8D7
:1001E0000AA090E8000C82448344AAF10107DA4592
:1001F00001D100F031F8AFF2090EBAE80F0013F0A8
:10020000010F18BFFB1A43F001031847BC38000068
:10021000DC380000103A24BF78C878C1FAD85207F9
:1002200024BF30C830C144BF04680C607047000070
:100230000023002400250026103A28BF78C1FBD8EF
:10024000520728BF30C148BF0B6070471FB503F08D
:1002500065FB1FBD10B510BD00F001F91146FFF799
:10026000F5FF03F02DFB00F01FF903B4FFF7F2FFD9
:1002700003BC00F027F900000948804709480047FF
:10028000FEE7FEE7FEE7FEE7FEE7FEE7FEE7FEE746
:10029000FEE7FEE704480549054A064B70470000A3
:1002A000C12C0008D9010008E8080020E80E002051
:1002B000E80A0020E80A002053EA020C00F06980F6
:1002C0002DE9F04B4FF00006002B1FBFB3FA83F56A
:1002D00003FA05F424FA05F65E4012BF1643B2FA9B
:1002E00082F502FA05F4C5F120051EBF22FA05FCCD
:1002F00044EA0C04203556EA044C4FEA144418BF73
:10030000641C4FF000084FF00009904271EB030CA1
:1003100039D3002919BFB1FA81F701FA07F6B0FA0B
:1003200080F700FA07F6C7F120071EBF20FA07FC86
:1003300046EA0C062037B6FBF4FCA7EB0507103F96
:1003400007F01F0BCBF120060CFA0BFB2CFA06F67C
:1003500044BFB3460026202FA4BF5E464FF0000BDB
:100360005BEA060C08BF4FF0010B19EB0B09ABFB66
:10037000027C48EB0608C01B06FB02CC0BFB03CC3F
:1003800071EB0C01C1E70B46024641464846BDE809
:10039000F08B13B54FF000004FF00001AFF3008079
:1003A000BDE81C40704710B5203AC0F00B80B1E8A2
:1003B0001850203AA0E81850B1E81850A0E818509A
:1003C000BFF4F5AF5FEA027C24BFB1E81850A0E8A3
:1003D000185044BF18C918C0BDE810405FEA827CBD
:1003E00024BF51F8043B40F8043B08BF7047D207D4
:1003F00028BF31F8023B48BF11F8012B28BF20F875
:10040000023B48BF00F8012B70474FF0000200B5D7
:10041000134694469646203922BFA0E80C50A0E827
:100420000C50B1F12001BFF4F7AF090728BFA0E8D5
:100430000C5048BF0CC05DF804EB890028BF40F8A1
:10044000042B08BF704748BF20F8022B11F0804FE3
:1004500018BF00F8012B704770477047704775460A
:1004600000F02CF8AE4605006946534620F0070020
:10047000854618B020B5FFF70DFFBDE820404FF0CE
:1004800000064FF000074FF000084FF0000B21F07E
:100490000701AC46ACE8C009ACE8C009ACE8C0094B
:1004A000ACE8C0098D46704710B50446AFF3008034
:1004B0002046BDE81040FFF7D8BE00000048704756
:1004C0008408002001491820ABBEFEE72600020088
:1004D0007047000070B500250E46012801D9AD1EF9
:1004E00011E000EB800101EB4011084800EB8100B6
:1004F000044600F08DF82046314602F0A5F910B10F
:100500006FF0030070BD284670BD0000F0070020AA
:1005100070B50446114886B0C16C41F00101C16458
:10052000C06C0F4E00F00100059036F814000090EA
:1005300001200190002002900A4D0320039055F8FD
:100540002400694600F098FA36F8141055F8240093
:10055000002200F0C2FB06B0002070BD0010024077
:100560007E3A0008E00000207047000030B50446E5
:10057000214887B0C26C42F00402C264C06C00F033
:10058000040005901D4830F81400009002200290ED
:1005900003901B4850F8240041B34FF48811019197
:1005A000694600F069FA1548001D50F824101448F7
:1005B000103000EBC400054600F042FA104800215C
:1005C000083050F82420284600F040FA0C480B4D23
:1005D0000C302D1F50F824102857002200F0E8FBA3
:1005E000285700F0D7FB07B0002030BD0021019153
:1005F000694600F041FAF6E700100240803A000830
:10060000E400002010B50020FFF7AEFF10BDFEE7AC
:1006100070B5194886B0C16C41F00101C164C16C6C
:1006200001F001010591C16C41F00101C164C16C8F
:1006300001F001010591C16D41F00101C165C06D7D
:10064000022400F0010005900420CDE9000402AA74
:1006500001200C2582E831004FF090466946304673
:1006600000F00AFA0820CDE90004694604953046F6
:1006700000F002FA06B070BD00100240014800F020
:10068000DBB8000030070020014800F0D5B80000BA
:10069000900700200D4902688A4201D20C4901E00E
:1006A0000B492031D2B21423083AB2FBF3F2436C67
:1006B00002F01F0223F003031944816404498031CE
:1006C000C1640121914001657047000008040240A7
:1006D000000802400179074A02EB81024265054A9F
:1006E0004432491E826501F01F0201219140C1651B
:1006F00070470000FC08024030B5D0E91345656042
:10070000446D14B1D0E91645656090F8444004F09A
:100710001F050124AC40056C6C600468636083684D
:10072000102B036803D099600068C26030BD9A60E6
:100730000068C16030BD704710B501F061FF4FF433
:10074000804000F08DF9BDE810404FF4004000F00B
:1007500087B972B6FEE710B590F825300021012266
:10076000022B03D00421C163012122E003681C682D
:1007700024F00E041C60836C1C6824F480741C60DC
:1007800003681C6824F001041C6090F84430046C79
:1007900003F01F0302FA03F36360D0E913345C60D3
:1007A000436D33B11C6824F480741C60D0E91634A6
:1007B0005C6080F82520002280F82420084610BDC7
:1007C00070B590F82520002401212346022A07D085
:1007D0000422C26380F8251080F82430012429E027
:1007E0000268156825F00E0515600268156825F089
:1007F00001051560826C156825F48075156090F808
:100800004420056C02F01F0201FA02F26A60D0E98E
:1008100013255560426D32B1156825F48075156059
:10082000D0E91625556080F8251080F82430816BBA
:1008300001B18847204670BDF0B4016C0C680168B6
:100840000D6890F8442002F01F06042202FA06F315
:10085000234211D06B070FD50B689B0603D40B689E
:1008600023F004030B6090F8441001F01F018A404C
:10087000016C4A60016B1DE0022303FA06F7274270
:100880004FF0000C4FF0010218D0AF0716D50C68DE
:10089000A40605D40C6824F00A040C6080F8252016
:1008A00090F8441001F01F018B40016C4B6080F800
:1008B00024C0C16A00291AD0F0BC08470823B340FD
:1008C000234214D02B0712D50B6823F00E030B60C4
:1008D00090F84410036C01F01F0102FA01F1596015
:1008E000C26380F8252080F824C0416BE2E7F0BCA9
:1008F0007047000070B504000CD02B4A216814200A
:10090000914209D2294A0A44B2FBF0F080006064A7
:1009100027480AE0012070BD234A52420A44B2FB34
:10092000F0F080006064204808382064022084F8D9
:1009300025000A6847F6F0708243D4E902031843A1
:10094000D4E904352B431843A3691843E3691843DA
:10095000236A1843104308602046FFF79BFEA068F7
:100960000025B0F5804F00D16560A16C207908604A
:10097000D4E9130141606068401E032808D820466E
:10098000FFF7A8FE606D0560D4E91601416002E042
:100990006565A565E565E563012084F8250084F8B3
:1009A0002450002070BD000008040240F8FFFDBF85
:1009B0000000024070B5044690F82400002501288C
:1009C0000CD0012084F8240094F825600020012E2A
:1009D00006D084F824000225284670BD022070BD90
:1009E000022684F82560E0632068066826F0010688
:1009F00006602046FFF780FE206B00282068016813
:100A000002D041F00E0106E021F0040101602068EF
:100A1000016841F00A010160A06C0168C90303D5B7
:100A2000016841F480710160606D18B1016841F4A2
:100A3000807101602068016841F001010160CBE72D
:100A400010B101600020704701207047034600206C
:100A500011B15860012070475A607047704700001C
:100A6000044910B50A68024202D00860FFF7F6FF99
:100A700010BD0000140401402DE9F04FDFF8209272
:100A8000002301260324A9F1040B85B00F2709F1E7
:100A9000040AABF1040EFAE006FA03F52A407CD012
:100AA00091F804C00CF0030CBCF1010F02D0BCF1B2
:100AB000020F26D1D0F808C0CDF800C04FEA430C91
:100AC00004FA0CF8CDF810C0DDF800C02CEA080CD0
:100AD000CDF800C0D1F80C80DDF810C008FA0CF891
:100AE000DDF800C048EA0C08C0F80880D0F804C05F
:100AF0002CEA050C0D79C5F300159D4045EA0C055F
:100B000045600D79ED43AD070ED0C5684FEA430847
:100B100004FA08FC25EA0C05D1F808C00CFA08FC18
:100B20004CEA050CC0F80CC00D7905F00305022D48
:100B300016D1DD0800EB850CCDF808C0DCF820806C
:100B40005D074FEAD56C07FA0CF528EA05080D6930
:100B500005FA0CF5DDF808C045EA0805CCF8205088
:100B600005684FEA430CCDF808C004FA0CFC25EAEE
:100B70000C0591F804C00CF00308DDF808C008FA71
:100B80000CF848EA0508C0F800804D6815F4403FAD
:100B90007CD0444DD5F860C000E077E04CF0010C0B
:100BA000C5F860C02D6E23F0030C05F0010500951B
:100BB0003D4D65440295AD684FEA837C4FEA1C7851
:100BC00007FA08FC25EA0C05B0F1904F06D0DFF8D3
:100BD000DCC0604505D14FF0010C20E04FF0000C67
:100BE0001DE0DFF8CCC0604502D14FF0020C16E0EA
:100BF000DFF8C0C0604502D14FF0030C0FE0DFF812
:100C0000B8C0604502D14FF0040C08E0DFF8ACC07A
:100C1000604502D14FF0050C01E04FF0060C0CFAD4
:100C200008FC4CEA050C029DC5F808C0D9F8005034
:100C3000CC46D1F8048095435FEAC82800D5154317
:100C4000CCF80050DAF80050D446D1F8048095432F
:100C50005FEA882800D51543CCF80050DBF8005037
:100C6000DC46D1F8048095435FEA883800D5154307
:100C7000CCF80050DEF80050F446D1F804809543DB
:100C80005FEAC83800D51543CCF800505B1C0A68F1
:100C900032FA03F57FF400AF05B0BDE8F08F000035
:100CA0000804014000100240000001400004004818
:100CB00000080048000C00480010004800140048DC
:100CC0000069084000D001207047426921EA020310
:100CD0000A4043EA0241816170470AB1816170476D
:100CE000816270470148806870470000FC00002066
:100CF000024881684268114481607047FC0000200E
:100D000010B50024032000F073F8002000F008F86C
:100D100008B1012401E000F025F8204610BD0000D4
:100D200070B50E4E05460024706898B14FF47A7184
:100D3000B1FBF0F00A490968B1FBF0F000F060FD8A
:100D400040B9102D06D200222946501E00F030F87E
:100D5000356000E00124204670BD0000FC0000204A
:100D6000080100200A4882B0016E41F001010166CD
:100D7000016E01F001010091816D41F080518165AA
:100D8000806D00F08050009002B000F0A1B800002B
:100D900000100240002809DB00F01F0201219140F1
:100DA0004009800000F1E020C0F800117047000009
:100DB000F0B40E4B1B680C46C3F30223C3F10705C6
:100DC000042D00D90425191D072901D2002300E0B4
:100DD000DB1E012606FA05F1491E214099409E407E
:100DE000761E16403143F0BC02F059BD0CED00E018
:100DF000064900F0070208684FF6FF03184040EA72
:100E00000220034A10430860704700000CED00E028
:100E10000000FA052B492C4B0A6832214A432B4922
:100E200040B1B0F5007F086829D020F4C06040F4DC
:100E300080602CE00868C0F34120022804D051F8FB
:100E4000800F20F4807022E0D1F8800020F48070C0
:100E5000C1F88000086820F4C06040F400700860A9
:100E6000B2FBF3F0401C00E0401E4A69520501D578
:100E70000028F9D1486940050AD503207047C0F31E
:100E80004120022806D051F8800F40F4807008609D
:100E900000207047D1F8800040F48070C1F88000D5
:100EA000086820F4C06040F400700860B2FBF3F002
:100EB000401C00E0401E4A695205DBD50028F9D1EC
:100EC000D8E700000801002040420F0000700040F9
:100ED0000248816841F480418160704700700040A1
:100EE0002DE9F8430446006800269D4D00035ED5B9
:100EF000A86D0027C00008D4A86D40F08050A865F8
:100F0000A86D012700F080500090DFF85892D9F8C2
:100F1000001041F48071C9F80010FFF7E3FE80462D
:100F200006E000BFFFF7DEFEA0EB080002282BD88A
:100F3000D9F80000C005F5D5D5F8900010F4407040
:100F400014D0216C814211D0D5F89000D5F89010C2
:100F500020F4407041F48031C5F89010D5F890101D
:100F600021F48031C5F89010C5F89000C00711D069
:100F7000FFF7B8FE804641F2883907E0FFF7B2FE7E
:100F8000A0EB0801494501D903260BE0D5F89000F4
:100F90008007F3D5D5F89000216C20F44070084309
:100FA000C5F890001FB1A86D20F08050A86520788A
:100FB000C00707D0D5F88800616820F00300084317
:100FC000C5F888002078800707D5D5F88800A16883
:100FD00020F00C000843C5F888002078400707D5AA
:100FE000D5F88800E16820F030000843C5F8880093
:100FF0002078000707D5D5F88800216920F0C000C7
:101000000843C5F888002078800607D5D5F8880001
:10101000616920F440600843C5F8880020784006E4
:1010200007D5D5F88800A16920F440500843C5F8D9
:1010300088002078000607D5D5F88800E16920F4FB
:1010400040400843C5F888002088C00507D5D5F87A
:101050008800216A20F440300843C5F888002088C1
:10106000800507D5D5F88800616A20F44020084340
:10107000C5F88800208840050FD5D5F88800A16AFA
:1010800020F440100843C5F88800A06AB0F5801F1E
:1010900003D1E86840F48010E860208800050FD58F
:1010A000D5F88800E16A20F440000843C5F88800BC
:1010B000E06AB0F5800F03D1E86840F48010E86082
:1010C0002088C0040FD5D5F88800216B20F040702F
:1010D0000843C5F88800206BB0F1807F03D1E86831
:1010E00040F48010E86020884FF0006180040ED545
:1010F000D5F88800626B20F040601043C5F8880086
:10110000606B884203D1E86840F48010E860208872
:1011100040040ED5D5F88800A26B20F04060104343
:10112000C5F88800A06B884203D1E86840F48010BD
:10113000E860208800040FD5D5F88800E16B20F026
:1011400040500843C5F88800E06BB0F1805F03D1E0
:10115000E86840F48030E8603046BDE8F88300007D
:1011600000100240007000402DE9F0470E460500D7
:101170004FF0000725D0DFF8AC81D8F8000000F070
:101180000F00B0420CD2D8F8001021F00F0131430B
:10119000C8F80010D8F8000000F00F00B04210D1DD
:1011A0002968614CC80741F2883A5AD06868DFF86C
:1011B0007C91032808D0022820682DD04005002803
:1011C0002CDB0120BDE8F08720688001F9D5E068BC
:1011D00000F00302E068C0F30310401C032A19D09A
:1011E000534A00BFB2FBF0F0E268C2F3062250435C
:1011F000E268C2F34162521C5200B0FBF2F0484573
:1012000017D9A06810F0F00F0CD0880711D5A86886
:1012100040B10EE0474AE5E78003D0E700F0B6F8BA
:10122000484506D9A06820F0F00040F08000A0609A
:101230008027A068696820F003000843A060FFF7DA
:1012400051FD814606E000BFFFF74CFDA0EB090110
:1012500051453AD8A068696800F00C00B0EB810FE6
:10126000F2D12868810714D5400703D5A06840F45F
:10127000E060A0602878000705D5A06820F46050E1
:1012800040F4E060A060A068A96820F0F000084386
:1012900004E0802F03D1A06820F0F000A060D8F80F
:1012A0000010404601F00F01B14216D9016821F04B
:1012B0000F0131430160FFF715FD074607E000BF4E
:1012C000FFF710FDC11B514501D903207AE7D8F87B
:1012D000000000F00F00B042F2D12878400705D599
:1012E000A068E96820F4E0600843A060287800075F
:1012F00006D5A068296920F4605040EAC100A060CA
:1013000000F044F8A1680C4AC1F30311515C01F0EC
:101310001F01C8400949086009480068BDE8F04756
:10132000FFF7FEBC002002400010024000B4C404DD
:101330000024F40000366E01B03A000808010020D5
:10134000FC0000200548064900688968054AC1F389
:101350000221515C01F01F01C840704708010020C4
:1013600000100240C03A0008054806490068896834
:10137000054AC1F3C221515C01F01F01C84070470A
:101380000801002000100240C03A0008184910B5BA
:101390008868C0F381021748012A0BD08A68164B6F
:1013A000C2F38102022A06D08A68C2F38102032AAC
:1013B00003D0002010BD184610BDCA6802F0030417
:1013C000CA68C2F30312521C032C02D0B0FBF2F025
:1013D00001E0B3FBF2F0CA68C968C2F306225043C9
:1013E000C1F34161491C4900B0FBF1F010BD0000A0
:1013F000001002400024F40000366E012DE9F8438D
:1014000004007AD02078F84DC00747D0A868E96872
:1014100000F00C0001F003010C2802D0082817D0BE
:1014200001E0032914D06068B0F5803F17D0B0F513
:10143000A02F286817D020F480302860286820F476
:10144000802028606068E0B1FFF74CFC064614E09D
:101450002868800322D560680028D2D01EE0286862
:1014600040F48030EDE740F480202860F7E700BFCB
:10147000FFF738FC801B642870D828688003F7D5F4
:101480000CE0FFF72FFC064605E000BFFFF72AFC43
:10149000801B6428F0D828688003F7D42078800760
:1014A0004CD5A868E96800F00C0001F003010C2895
:1014B00002D004280DD001E002290AD0E0680028FB
:1014C00028682BD040F480702860FFF70BFC06469C
:1014D00019E02868400502D5E068002891D06868C6
:1014E000217C20F0FE4040EA01606860BF4800684F
:1014F000FFF716FC002800D120E072E1FFF7F2FBB5
:10150000801B0228B8D828684005F7D56868217C78
:1015100020F0FE4040EA016068600FE020F4807037
:101520002860FFF7DFFB064605E000BFFFF7DAFBA8
:10153000801B0228A0D828684005F7D4207800072F
:1015400029D560690028D5F8940013D040F0010037
:10155000C5F89400FFF7C6FB064606E090E000BF22
:10156000FFF7C0FB801B022886D8D5F894008007BF
:10157000F6D510E020F00100C5F89400FFF7B2FBAB
:10158000064604E0FFF7AEFB801B022878D8D5F8AA
:1015900094008007F6D42078400761D5A86D002616
:1015A000C00008D4A86D40F08050A865A86D012641
:1015B00000F0805000908E480168C90511D4016880
:1015C000804641F480710160FFF78CFB074604E020
:1015D000FFF788FBC01B022852D8D8F80000C005CE
:1015E000F6D5A068012815D00528D5F8900016D0AA
:1015F00020F00100C5F89000D5F8900020F004001C
:10160000C5F89000A06841F28838B8B1FFF76AFBCE
:1016100007460EE0D5F8900040F00100F0E740F0FA
:101620000400C5F89000F5E7FFF75CFBC11B4145DE
:1016300026D8D5F890008007F6D50CE0FFF752FBCE
:10164000074604E0FFF74EFBC11B414518D8D5F80B
:1016500090008007F6D41EB1A86D20F08050A865D8
:101660002078800629D5A0690028D5F8980013D0E5
:1016700040F00100C5F89800FFF734FB064606E08D
:1016800075E000BFFFF72EFB801B02286FD8D5F84E
:1016900098008007F6D510E020F00100C5F898000A
:1016A000FFF720FB064604E0FFF71CFB801B022827
:1016B0005DD8D5F898008007F6D4E069F0B3A96842
:1016C000C1F3810103295DD00228286820F08070D1
:1016D000286003D0FFF706FB04464BE0FFF702FB50
:1016E000064604E0FFF7FEFA801B02283FD8286870
:1016F0008001F7D4F4E908016FF00F0202EB011149
:101700000843218A5204490802EB4151A26841EA88
:1017100002210843217D4FF07E42490802EB4161DE
:101720000843217B40EAC160E968324A114008431E
:10173000E860286840F08070286000E05EE0E868BB
:1017400040F08070E860FFF7CDFA044605E000BF86
:10175000FFF7C8FA001B022809D828688001F7D5CE
:101760004CE000BFFFF7BEFA001B022802D903209D
:10177000BDE8F88328688001F4D4E8681E49084071
:10178000E8603BE00128F3D0E868226A00F003013A
:10179000914226D1616A00F0F002090110399142AC
:1017A0001FD1A26A00F4FE41B1EB022F19D194F8C7
:1017B0002C2000F07841B1EBC26F12D1218E00F4E1
:1017C000C00249084905A1F50011914209D194F8D8
:1017D000341000F0C06049084906A1F1007181424F
:1017E0000CD00120C4E7000000100240FC000020E3
:1017F000007000400C809F01FCFFEEFE0020B7E768
:1018000010B5401EB0F1807F01D3012010BD4FF014
:10181000E02460610F21601702F041F80020A06110
:1018200007202061002010BD704770477047704747
:1018300070477047F0B590F83C20012A3AD0012556
:1018400080F83C50022280F83D2003685A689C686A
:10185000194E1A4FB34201D0BB4204D122F4700C8E
:101860004A6842EA0C02DFF858C002EA0C02D1F8DA
:1018700000C04CEA020CC3F804C00268B2420DD0AA
:10188000B2F1804F0AD00F4B9A4207D00E4B9A42CA
:1018900004D0BA4202D00D4B9A4204D1896824F098
:1018A00080031943916080F83D50002180F83C107E
:1018B0000846F0BD0220F0BD002C0140003401407C
:1018C0008FFFFFFD00040040000800400040014081
:1018D000704710B5040003D094F83D0010B107E044
:1018E000012010BD002084F83C00204600F022F8C2
:1018F000022084F83D00211D206801F007FA012034
:1019000084F8480084F83E0084F83F0084F84000E2
:1019100084F8410084F8420084F8430084F84400CD
:1019200084F8450084F8460084F8470084F83D00B8
:10193000002010BD08B500680B49884212D10B4841
:10194000816D41F010018165806D002200F0100072
:10195000009011463620FFF72BFABDE808403620EC
:10196000FFF718BA08BD0000001000400010024048
:1019700090F83D10012901D001207047022180F824
:101980003D100168CA6842F00102CA60006810494F
:1019900088420ED0B0F1804F0BD00E49884208D05B
:1019A0000D49884205D00D49884202D00C49884231
:1019B00007D181680B4A1140062906D0B1F5803F56
:1019C00003D0016841F00101016000207047000070
:1019D000002C014000040040000800400034014099
:1019E000004001400700010070472DE9F041044626
:1019F0000068C66805694FF00007A90713D5B1074D
:101A000011D5F91E016101202077206880698007C7
:101A1000204602D0FFF7E8FF04E000F017F9204667
:101A200000F008FA2777680716D5700714D52168E3
:101A30006FF004000861022020772068806910F4AC
:101A4000407F204602D0FFF7CFFF04E000F0FEF811
:101A5000204600F0EFF92777280715D5300713D572
:101A600021686FF008000861042020772068C069B1
:101A70008007204602D0FFF7B7FF04E000F0E6F849
:101A8000204600F0D7F92777E80616D5F00614D5DA
:101A900021686FF010000861082020772068C06975
:101AA00010F4407F204602D0FFF79EFF04E000F0D4
:101AB000CDF8204600F0BEF92777E80708D0F007F8
:101AC00006D021686FF001000861204600F048FA56
:101AD000280601D4A80408D5300606D521686FF47D
:101AE000025008612046FFF7A0FEE80508D5300641
:101AF00006D521686FF4807008612046FFF794FED8
:101B0000680608D5700606D521686FF040000861A8
:101B1000204600F026FAA80608D5B00606D52168AA
:101B20006FF0200008612046FFF780FEE80208D52C
:101B3000F00206D521686FF4801008612046FFF797
:101B400077FEA80208D5B00206D521686FF4001010
:101B500008612046FFF76BFE680208D5700206D5C3
:101B600021686FF4800008612046FFF762FE2802BA
:101B70000AD5300208D521686FF4000008612046BC
:101B8000BDE8F041FFF7A4BEBDE8F08170B586B0B6
:101B9000044614216846FEF738FC226800252749D0
:101BA00002244FF09040B2F1804F25D0244B9A424E
:101BB00020D1CA6C42F00102CA64CA6C02F0010270
:101BC0000592CA6C42F00402CA64C96C01F00401B7
:101BD000059150218DE83200CDE903546946FEF7A6
:101BE0004BFFE0018DE83100CDE90354694615480B
:101BF000FEF742FF06B070BDCA6C42F00102CA6433
:101C0000CA6C02F001020592CA6C42F00202CA6478
:101C1000C96C012601F00201059103218DE8320013
:101C2000CDE903566946FEF727FFB0028DE8310083
:101C3000CDE9035669460448DAE700000010024087
:101C4000000400400008004800040048704770B5D8
:101C5000044690F83C0000260D4601280BD00120D8
:101C600084F83C000C2A4AD007DC82B1042A20D038
:101C7000082A06D131E0022070BD102A53D0142A60
:101C800063D00126002084F83C00304670BD2068F7
:101C900001F0A8F82068816941F00801816120689D
:101CA000816921F004018161206881692A691143F9
:101CB00011E0206801F0E4F82068816941F40061D6
:101CC00081612068816921F4806181612068816976
:101CD0002A6941EA02218161D4E7206801F018F9FC
:101CE0002068C16941F00801C1612068C16921F023
:101CF0000401C1612068C1692A69114311E02068AB
:101D000001F04EF92068C16941F40061C1612068A9
:101D1000C16921F48061C1612068C1692A6941EA11
:101D20000221C161AEE7206801F082F92068016DEF
:101D300041F0080101652068016D21F00401016591
:101D40002068016D2A69114311E0206801F0A8F9AB
:101D50002068016D41F4006101652068016D21F486
:101D6000806101652068016D2A6941EA02210165EF
:101D700088E710B5040003D094F83D0010B107E0E7
:101D8000012010BD002084F83C00204600F022F81D
:101D9000022084F83D00211D206800F0B7FF0120DB
:101DA00084F8480084F83E0084F83F0084F840003E
:101DB00084F8410084F8420084F8430084F8440029
:101DC00084F8450084F8460084F8470084F83D0014
:101DD000002010BD08B501681448B1F1804F14D03F
:101DE000134A914220D1816D41F002018165806DDD
:101DF000002200F00200009011461D20FEF7D8FFDF
:101E00001D20BDE80840FEF7C5BF816D41F001010E
:101E10008165806D002200F00100009011461C20B9
:101E2000FEF7C6FF1C20ECE708BD000000100240D2
:101E3000000400407047000070B5002504460222EF
:101E400069B1042916D0082955D00C295ED0102973
:101E500063D094F84300012866D0012070BD94F847
:101E60003E000128F9D184F83E202068C26842F083
:101E7000020209E094F83F000128EED184F83F20E7
:101E80002068C26842F00402C2600122206800F0AB
:101E90009BFF2B4920682B4A2B4B884209D090424C
:101EA00007D0984205D0294EB04202D0284EB04209
:101EB00003D1466C46F400464664206888420CD044
:101EC000B0F1804F09D02349884206D02249884288
:101ED00003D0904201D0984207D181681F4A114037
:101EE000062906D0B1F5803F03D0016841F0010119
:101EF0000160284670BD94F840000128ADD184F8F7
:101F000040202068C26842F00802BDE794F8410012
:101F10000128A2D184F8412008E094F84200012869
:101F20009BD184F8422003E084F843200C2901D09F
:101F30000125DEE72068C26842F01002A4E7000035
:101F4000002C0140003401400040014000440140A9
:101F50000048014000040040000800400700010064
:101F60007047704790F88410012918D0012180F83B
:101F700084102421C0F8881001680A680B6823F0D7
:101F800001030B6022F000510022426603681960D1
:101F90002021C0F8881080F8842010467047022065
:101FA00070477047704770B5044690F88400012868
:101FB0001DD0012084F884002420C4F88800206803
:101FC0000568026822F0010202602068826822F03F
:101FD00060620A438260204601F0B6F8206805601E
:101FE0002020C4F88800002084F8840070BD0220FE
:101FF00070BD70B5044690F8840001281DD0012002
:1020000084F884002420C4F88800206805680268E9
:1020100022F0010202602068826822F060420A43D6
:102020008260204601F090F8206805602020C4F806
:102030008800002084F8840070BD022070BD7047C5
:10204000704770472DE9F04103680446D869196864
:102050009A6840F60F0528424FF000054FF002063F
:102060000AD187067ED501F0200702F0805C57EA8E
:102070000C0777D0616F42E1B64FDFF8DCC2174042
:1020800001EA0C0C57EA0C0C6CD05FEAC07C0CD057
:102090005FEAC15C09D54FF0010CC3F820C0D4F849
:1020A000903043F00103C4F89030830709D5D3077B
:1020B00007D023681E62D4F8903043F00403C4F8BC
:1020C000903043070AD5D30708D02668042333622B
:1020D000D4F8903043F00203C4F8903003070CD5D5
:1020E00001F020033B4308D0266808233362D4F86C
:1020F000903043F00803C4F8903003050BD54B0132
:1021000009D526684FF400633362D4F8903043F069
:102110002003C4F89030D4F89030002B3DD08006D6
:1021200009D501F0200002F08051084303D0616F0F
:1021300009B120468847D4F890002168896849068B
:1021400002D410F0280F2AD0204601F083F920682D
:10215000806840061ED52068083050E8001F21F036
:10216000400100E021E040E80012002AF3D1D4F859
:10217000800078B179498163D4F88000FEF720FBB4
:1021800000280AD0D4F88000816B00E02046BDE82A
:10219000F04108472046FFF754FFBDE8F081204694
:1021A000FFF74FFFC4F89050F7E7D4F86CC0202732
:1021B000BCF1010F7ED15FEAC06C7BD55FEAC16CD8
:1021C00078D51020186220688068400651D5D4F870
:1021D00080100A6850680004000C3ED0B4F85C30EF
:1021E00083423AD9A4F85E000868006880062CD4BF
:1021F000216851E8000F20F4807041E80002002AB5
:10220000F6D12068083050E8001F21F0010140E8B5
:102210000012002AF5D12068083050E8001F21F094
:10222000400140E80012002AF5D1C4F88C70E56640
:10223000216851E8000F20F0100041E80002002A58
:10224000F6D1D4F88000FEF786FA2667B4F85C0071
:10225000B4F85E10401A81B207E0B4F85C10814215
:102260009BD11068800698D526672046FFF799FE17
:1022700093E7B4F85C00B4F85E10401A81B2B4F889
:102280005E00002889D0002987D0226852E8000F1C
:1022900020F4907042E80003002BF6D12D4BDB4375
:1022A0002068083050E8002F1A4040E8002CBCF1AC
:1022B000000F00E00EE0F3D1C4F88C70E5666567AE
:1022C000206850E8002F22F0100240E80023002B85
:1022D000F6D1C9E7C60209D5560207D54FF48010DA
:1022E00018622046BDE8F041FFF7AABE03060AD5F2
:1022F00001F0800302F40002134304D0A16F00290F
:102300007FF444AF49E7420611D54A060FD520466F
:10231000016851E8002F22F0400241E80023002B21
:10232000F6D1C0F88870856700F054F935E70202ED
:1023300006D54A0004D52046BDE8F041FFF77FBE30
:10234000C00195D5002993DA2046BDE8F041FFF79A
:1023500029BE000001000010200100040133000824
:1023600010B5040003D0D4F8880010B107E00120B4
:1023700010BD002084F88400204600F027F82420B7
:10238000C4F888002068016821F001010160A06A9A
:1023900010B1204600F0FAFE204601F09DF8012819
:1023A000E6D02068416821F490414160206881684E
:1023B00021F02A0181602068016841F0010101607B
:1023C0002046BDE8104000F045BF0000F0B597B0D2
:1023D0000646142111A8FEF718F844216846FEF7B6
:1023E00014F83149306888425CD101200024CDE9DD
:1023F00000046846FEF774FD08B1FEF7AAF92B4801
:10240000016E41F480410166016E01F48041169134
:10241000C16C41F00401C164C06C11A900F004005A
:102420001690302011900220CDE912040720CDE94A
:1024300014401F48FEF720FB1F4D1E4805F1080100
:102440002860192068601020802781E891006C6165
:10245000AC61EC6128462C62FEF74CFA08B1FEF73D
:1024600078F9F567AE62144D124860351430286073
:102470001820C5E90104C5E903476C61AC61EC6152
:1024800028462C62FEF736FA08B1FEF762F9C6F864
:102490008050002211462520AE62FEF789FC2520DF
:1024A000FEF778FC17B0F0BD003801400010024084
:1024B00000080048080002403007002030B4D0F87F
:1024C0008C30202B02D0022030BC7047A9B1A2B1C1
:1024D0000023C3660A4C0368A3420BD05B681B024F
:1024E00008D5046854E8003F43F0806344E80035B1
:1024F000002DF6D130BC01F029B90120E4E700003D
:102500000080004010B50068094988420FD1094990
:102510000A220889401C08810749084800F012F87F
:10252000BDE810400A2204490448FFF7C7BF10BDA8
:1025300000380140000000204C0500209C060020CF
:102540007047000070B50446D0F88800202801D0FC
:10255000022070BD39B332B32165A4F85420A4F829
:1025600056200021C4F890102120C4F88800E06FA4
:10257000D8B1154BC362E36F14481863E36F144876
:102580005863E06F134681632068E56F00F128020D
:102590002846216DFEF70EFA38B11020C4F89000DD
:1025A0002020C4F88800012070BD21684020086206
:1025B0002068083050E8001F41F0800140E8001218
:1025C000002AF5D1002070BD073400084934000806
:1025D0001133000800680649884207D10549C888B8
:1025E000401CC8800A210448FDF70FBF7047000057
:1025F00000380140000000204C050020704700001A
:1026000010B50D4C8CB02C22608904F12C01401CBB
:102610006081A089401CA0816846FDF7C4FE1C347F
:1026200094E80F0000F072FA0CB04FF40050BDE8CF
:102630001040FEF715BA00000000002010B500F0B1
:1026400003FA00F065FD0348B7EE000A80ED060AC4
:1026500010BD00000000002010498CB02C220D4657
:102660006846FDF7A0FE0D4C103C94E80F001C3CA2
:1026700000F03BFA0A48FFF77BF90A2209490A48A9
:10268000FFF71CFF2C2229466846FDF78CFE1C3400
:1026900094E80F0000F03AFAFEE700002C0000205A
:1026A000500600204C0500209C06002000B58BB091
:1026B0002C2205496846FDF776FE034810380FC8FE
:1026C00000F024FA0BB000BD2C00002000B58BB048
:1026D0002C2205496846FDF766FE034810380FC8EE
:1026E00000F014FA0BB000BD2C0000201348418804
:1026F000491C89B2418014291ED343898288032151
:10270000534393FBF1F300EE103AB8EEC00A80EDAC
:10271000040A8389534393FBF1F100EE101A002160
:10272000B8EEC00A80ED050A4181818141802021F7
:102730004FF09040FEF7C9BA70470000000000203B
:102740007047FEE7114808B5816C41F004018164CF
:10275000816C01F004010091816C41F00101816400
:10276000806C002200F00100009011460B20FEF763
:102770001FFB0B20FEF70EFB002211460C20FEF77C
:1027800017FBBDE808400C20FEF704BB0010024018
:1027900070B586B014216846FDF737FE2748C16C36
:1027A00041F00401C164C16C01F004010591C16CE8
:1027B00041F02001C164C16C01F020010591C16CA0
:1027C00041F00101C164C16C01F001010591C16CCE
:1027D00041F00201C164C06C194E00F00200059086
:1027E000002238213046FEF778FA00240220CDE995
:1027F0000004694613480294FEF73EF94FF4604026
:1028000000904FF444100125CDE90105694630469A
:10281000FEF732F938200090CDE901546946304680
:102820000394FEF729F9002211462820FEF7C0FA8A
:102830002820FEF7AFFA06B070BD0000001002407D
:102840000004004800080048094A126802600A684B
:1028500042600C2242614A8902614A6882600A89A8
:10286000C260898981614FF40041C161FFF778BD81
:10287000E800002010B58AB00024079408941C21B9
:1028800068460994FDF7C1FD1D484FF08041016085
:10289000AA21C0E901144FF47A71C0E903148461DC
:1028A000FFF767FA08B1FDF754FF079407A914482A
:1028B0000994FEF7BFFF08B1FDF74BFF6020CDE99B
:1028C00000040294002269460D480494FFF7BFF902
:1028D00008B1FDF73EFF042269460948FFF7B7F942
:1028E00008B1FDF736FF082269460548FFF7AFF942
:1028F00008B1FDF72EFF0248FFF748F90AB010BDF6
:10290000B805002010B58AB00024079408941C2153
:1029100068460994FDF779FD1E481D490160AA210A
:10292000C0E901144FF47A71C0E903148461FFF720
:1029300020FA08B1FDF70DFF079407A9154809947F
:10294000FEF778FF08B1FDF704FF6020CDE9000431
:102950000294002269460F480494FFF778F908B101
:10296000FDF7F7FE042269460A48FFF770F908B13F
:10297000FDF7EFFE082269460648FFF768F908B13F
:10298000FDF7E7FE0348FFF701F90AB010BD0000AC
:1029900000040040040600203EB500240F480094C7
:1029A00001940D4902940160AA21C0E901144CF27E
:1029B00050318461C160FEF78CFF08B1FDF7C9FE9C
:1029C0000094694605480294FEF734FF002801D0C0
:1029D000FDF7BFFE3EBD0000001000405006002085
:1029E000184810B5164901604FF4E13141600021EB
:1029F00081600C22C160C0E904128161C161016281
:102A000041628162FFF7ACFC08B1FDF7A2FE002134
:102A10000C48FFF7EEFA08B1FDF79BFE00210948CC
:102A2000FFF7C1FA08B1FDF794FE0648FFF79AFADE
:102A3000002803D0BDE81040FDF78BBE10BD00009C
:102A4000003801409C060020F0B50020244CADF277
:102A5000444D024600EB00135FF0000144F82300F0
:102A600004EB830505EBC105491C6A60AA600829CF
:102A7000F6DB401C1028EDDB4FF43B7155A8FDF749
:102A8000C4FC4FF4AA7217496846FDF78CFC00217C
:102A90004FEA0D0301EB011653F82620102A0ED23F
:102AA00002EB0212002004EB820503EB860600BF56
:102AB00006EBC007D7E9012762B1102A03D3002033
:102AC0000DF2444DF0BD05EBC00C401CCCE90127D4
:102AD0000828EDDB491C1029DCDB0120F0E70000B1
:102AE0000C01002028390008FEE70FB470B500245F
:102AF00004AD05EB840041680498FFF79DF9641C60
:102B0000032CF6DB70BC5DF814FB00000FB42DE95C
:102B1000F041BDF848100F98FEF7D2F88400BDF8D8
:102B20004A101098FEF7CCF844EA4004BDF84C1067
:102B30001198FEF7C5F80443149800280ADB0646EE
:102B4000072C18D2DFE804F0171513040F17110033
:102B5000042411E04642072C0DD2DFE804F00C06F5
:102B60000C040D080A00012406E0022404E00324FA
:102B700002E0052400E0002404EB44003249002573
:102B8000A84601EB400706AC17F81500002804EB37
:102B9000850040681ED058B104280DD008280FD0F9
:102BA0000C2811D010280698006811D0C6641EE0C9
:102BB0000698006846631AE006980068866316E087
:102BC00006980068C66312E00698006806640EE086
:102BD00086640CE088B1042814D0082817D00C288B
:102BE0001AD006991028404609681AD0C86407EB25
:102BF00045004078B8B1012216E006990968C1F88D
:102C00003480F4E706990968C1F83880EFE706993F
:102C10000968C1F83C80EAE706990968C1F8408074
:102C2000E5E78864E3E7002204EB4500818B04EBD1
:102C300085000069FEF751F86D1C032DA4DBBDE88B
:102C4000F0015DF814FB000094000020FEE77047DF
:102C50007047FEF74DB800B593B038216846FDF7D0
:102C6000D4FB14210EA8FDF7D0FB0020FEF7D2F80C
:102C70000220C10103914021049108AB009007900C
:102C80000421552283E80700CDE90B010D90684629
:102C9000FEF7B4FB08B172B6FEE70F200E900320DA
:102CA0000F90002010901190129004210EA8FEF7B2
:102CB0005BFA002801D072B6FEE713B000BD000039
:102CC0000248016841F470010160704788ED00E03E
:102CD00010B5FFF7EBFCBDE810400148FEF785BEDC
:102CE000B805002010B5FFF7F1FCBDE81040014821
:102CF000FEF77BBE0406002010B5FFF7F7FCBDE829
:102D000010400148FEF771BE500600202DE9F04347
:102D10000268264B264D274E274C4FF0804998429B
:102D200007D0484505D0A84203D0B04201D0A04208
:102D300003D122F070074A683A43204FDFF880C081
:102D4000DFF8808098420DD048450BD0A84209D0CA
:102D5000B04207D0A04205D0B84203D0604501D0B0
:102D6000404503D122F44075CA682A434D6922F0D8
:102D700080022A4302608A68C2620A6882629842BC
:102D800007D0A04205D0B84203D0604501D04045ED
:102D900001D109690163012141610169C90703D0BA
:102DA000016921F001010161BDE8F083002C0140BF
:102DB0000004004000080040003401400040014091
:102DC000004401400048014010B501F01F030121FB
:102DD000046A99408C430462016A9A40114301627B
:102DE00010BD00002DE9F043056A026A22F00102DD
:102DF0000262436882691C4C25F0020522400C687F
:102E000022F0030214438A68194E2A43174D194FC2
:102E1000DFF864C0DFF86490A84207D0B04205D064
:102E2000B84203D0604501D0484506D122F00808D9
:102E3000CA6842EA080222F00402A84207D0B0425F
:102E400005D0B84203D0604501D0484505D14D6951
:102E500023F440731D438B692B43436084614968AD
:102E600041630262BDE8F0838FFFFEFF002C01404A
:102E7000003401400040014000440140004801404E
:102E8000F0B5056A026A22F01002026242688369A4
:102E9000194C1B4E23400C6823F4407343EA04246E
:102EA00025F020038D6843EA0513144DA84201D094
:102EB000B04206D1CF6823F0800343EA071323F022
:102EC0004003A8420AD0B04208D00E4DA84205D017
:102ED0000D4DA84202D00D4DA84207D14D6922F4F4
:102EE000406242EA85028D6942EA8502426084615D
:102EF000496881630362F0BDFF8FFFFE002C014033
:102F000000340140004001400044014000480140BD
:102F1000F0B5056A026A22F4807202624368C269EF
:102F2000194C1B4E22400C6822F00302144325F476
:102F300000728D6842EA0522144DA84201D0B042C9
:102F400006D1CF6822F4006242EA072222F48062AE
:102F5000A8420AD0B04208D00E4DA84205D00E4D6E
:102F6000A84202D00D4DA84207D14D6923F4405329
:102F700043EA05138D6943EA05134360C461496858
:102F8000C1630262F0BD00008FFFFEFF002C014014
:102F9000003401400040014000440140004801402D
:102FA000F0B5056A026A22F4805202624268C3697F
:102FB000194C1B4E23400C6823F4407343EA04244D
:102FC00025F400538D6843EA0533144DA84201D01F
:102FD000B04206D1CF6823F4004343EA073323F419
:102FE0008043A8420AD0B04208D00E4DA84205D076
:102FF0000D4DA84202D00D4DA84207D14D6922F4D3
:10300000404242EA85128D6942EA85124260C461FB
:10301000496801640362F0BDFF8FFFFE002C014090
:10302000003401400040014000440140004801409C
:1030300030B5056A026A22F4803202624268036D8A
:10304000114C23400C681C4325F400330D8943EADE
:1030500005430E4DA8420BD00D4DA84208D00D4D92
:10306000A84205D00C4DA84202D00C4DA84204D174
:103070004D6922F4803242EA0522426004654968C3
:103080008164036230BD00008FFFFEFF002C014011
:10309000003401400040014000440140004801402C
:1030A00030B5046A026A22F4801202624268036D3B
:1030B000114D24F400142B400D6843EA05230D89BB
:1030C00044EA05540D4DA8420BD00D4DA84208D03E
:1030D0000C4DA84205D00C4DA84202D00B4DA84281
:1030E00004D14D6922F4802242EA852242600365C0
:1030F0004968C164046230BDFF8FFFFE002C0140AF
:1031000000340140004001400044014000480140BB
:1031100070B500210B4B0C465FF00A0501EB8102F4
:103120005FF0000003F8124003EB42060644401C27
:1031300074700828F8DB03EB4200491C457208292B
:10314000ECDB70BD5605002030B5416EB9B10268A8
:1031500091689268C1F342610B4B520F9C5CE50091
:1031600003F10804A25CB5FBF2F2A0F86A205A5CF5
:10317000615CD200B2FBF1F1A0F8681030BD012112
:10318000A0F86A10F8E70000A03A000890F82810AC
:10319000090706D501684A68836B22F400421A4386
:1031A0004A6090F82810C90706D001684A68C36AC7
:1031B00022F400321A434A6090F82810890706D595
:1031C00001684A68036B22F480321A434A6090F81F
:1031D0002810490706D501684A68436B22F480220B
:1031E0001A434A6090F82810C90606D501688A6813
:1031F000C36B22F480521A438A6090F82810890623
:1032000006D501688A68036C22F400521A438A606A
:1032100090F82810490611D501684A68436C22F4D9
:1032200080121A434A60416CB1F5801F06D10168D3
:103230004A68836C22F4C0021A434A6090F828104E
:10324000090606D501684A68C06C22F400220243D0
:103250004A6070472DE9F84300260446C0F89060A4
:10326000FDF740FD8046206800684FF0200500070C
:103270006FF07E4713D5434600222904204600976D
:1032800000F0B8FA58B1216851E8000F20F0800032
:1032900041E80002002AF6D1C4F8885021E02068F5
:1032A0000068400722D5434600224FF480012046A3
:1032B000009700F09FFAC8B1216851E8000F20F490
:1032C000907041E80002002AF6D12068083050E8EA
:1032D000001F21F0010140E80012002AF5D1C4F8D6
:1032E0008C5084F884600320BDE8F883C4F88850CB
:1032F000C4F88C5044F86C6F666026760020F3E7C3
:1033000010B5806A0021A0F85E10FEF79AFE10BD8D
:1033100070B5846AD4F88800D4F88C502168896824
:103320004FF00006090606D5212804D1A4F85660FE
:10333000204600F0B9F820688068400606D5222DA6
:1033400004D1A4F85E60204600F084F8D4F8900020
:1033500040F01000C4F890002046FEF772FE70BDE9
:1033600010B50146806A096809684FF000028906B5
:103370002DD4A0F85E20036853E8001F21F480716B
:1033800043E80014002CF6D10168083151E8003FF1
:1033900023F0010341E80034002CF5D10168083125
:1033A00051E8003F23F0400341E80034002CF5D100
:1033B0002021C0F88C10C16E012908D1016851E8A4
:1033C000003F23F0100341E80034002CF6D10267DF
:1033D000C16E012902D0FFF795F810BDB0F85C105E
:1033E000FEF7DFFD10BD10B5806A01210167C16ED7
:1033F000012902D0FFF7A4F810BDB0F85C1049080D
:10340000FEF7CFFD10BD10B50146806A0968096856
:10341000890616D40021A0F856100168083151E839
:10342000002F22F0800241E80023002BF5D1026832
:1034300052E8001F41F0400142E80013002BF6D192
:1034400010BDFFF7C7F810BD10B5806AFFF7D6F8BA
:1034500010BD000010B5026852E8001F21F4907101
:1034600042E80013002BF6D10E4B0268083252E8F6
:10347000001F194042E80014002CF6D1C16E01294A
:1034800008D1016851E8002F22F0100241E8002322
:10349000002BF6D12021C0F88C100021C1664167B5
:1034A00010BD0000FEFFFFEF026852E8001F21F090
:1034B000C00142E80013002BF6D10168083151E841
:1034C000002F22F4000241E80023002BF5D1202137
:1034D000C0F88810704700002DE9F04104460168EB
:1034E00080682269E3691043626900251A4310432A
:1034F000DFF82CC20A688B4B1A4002430A6020682E
:103500004168E26821F44051114341602168A0699B
:10351000614501D0226A10438A68834B1A400243F6
:103520008A602068C16A626A21F00F011143C1629A
:103530007E4923687E488B420DD1D0F8880010F078
:10354000030006D0012855D0022842D003283FD1DD
:1035500052E001203DE077498B420BD1D0F8880042
:1035600010F00C0035D0042833D0082840D00C28A7
:103570002ED141E070498B420BD1D0F8880010F079
:10358000300026D0102835D0202831D030281FD147
:1035900032E06A498B420BD1D0F8880010F0C000AD
:1035A00017D0402826D0802822D0C02810D123E070
:1035B00063450DD1D0F8880010F4406009D0B0F513
:1035C000806F17D0B0F5006F12D0B0F5406F13D0F8
:1035D00010205B495B4F00264FF4004263453BD10E
:1035E00060B1022813D004280BD0082872D10DE056
:1035F0000220EEE70420ECE70820EAE7FDF7A2FE50
:1036000001E0FDF7C3FE010001D17CE01146606AD4
:1036100037F810206768B1FBF2F007EB47038342ED
:1036200070D8B0EB073F6DD8002308461946FCF769
:1036300043FE090241EA1061020278081018714144
:103640003A460023FCF738FE3F4AA0F5407191420C
:1036500058D82168C86056E0E3694FF6EF78934286
:103660002CD109284ED2DFE800F00508114D0D4D90
:103670004D4D1000FDF766FE01E0FDF775FE0100FF
:1036800004D140E0FDF782FEF9E71146606A37F8A1
:103690001000B1FBF0F04100606801EB5001B1FB9C
:1036A000F0F0A0F1100141452CD84FF6F071014027
:1036B000C0F3420001432068C16024E0092821D200
:1036C000DFE800F0050912200E2020201100FDF790
:1036D00039FE02E016E0FDF747FE010004D112E0DA
:1036E000FDF754FEF9E71146606A37F81000B1FBA8
:1036F000F0F1606801EB5001B1FBF0F0A0F11001B6
:1037000041450AD901250120A4F86A0024F8680F70
:103710002846E6602661BDE8F08180B299E70000A6
:1037200000800040F369FFCFFFF4FF110038014033
:10373000001002400044004000480040004C00409F
:103740000024F400883A0008FFFC0F0070B5816582
:10375000A0F85C2000210446C0F890102220C4F894
:103760008C00D4F88000F0B11F4BC362D4F88030D5
:103770001E481863D4F880301D485863D4F8800080
:1037800013468163A56D21682A462431D4F8800050
:10379000FDF710F938B11020C4F890002020C4F8CB
:1037A0008C00012070BD206940B1216851E8000FF4
:1037B00040F4807041E80002002AF6D12068083009
:1037C00050E8001F41F0010140E80012002AF5D145
:1037D0002068083050E8001F41F0400140E8001226
:1037E000002AF5D1002070BD61330008E7330008DE
:1037F000113300082DE9F047994617460D46044657
:103800004FF00008089E33E0701C31D0FDF76AFAD3
:10381000A0EB0900B04218D8BEB120680168490782
:1038200026D5802D24D0402D22D0C169C943090757
:103830000DD4082505622046FFF70CFEC4F8905011
:1038400084F884800120BDE8F0870320FBE7C0698D
:10385000C04300050CD421684FF400600862204684
:10386000FFF7F8FD2020C4F8900084F88480ECE78E
:103870002068C06935EA000004D00020B842C3D0F7
:103880000020E0E70120F9E710B5FEF759FFBDE899
:1038900010400148FEF7D6BB9C060020FEE7090752
:1038A000090E002804DB00F1E02080F800147047C6
:1038B00000F00F0000F1E02080F8141D70470000B8
:1038C000FDF71EFAFFF7C7F9FEF762FFFEF73AFFB2
:1038D000FEF7D0FFFFF716F8FFF75EF8FFF780F866
:1038E0000020FCF715FE01210020FCF73FFE0A48EE
:1038F0004FF4E1310160002141600181418181810A
:1039000001460020FCF7E6FD08B172B6FEE7FEF7BF
:1039100095FEFEF7A1FEFEE7A80500204FF04070DF
:10392000E1EE100A704700000000000000000000F7
:103930000000000000000000000000000000000087
:103940000000000000000000000000000000000077
:103950000000000000000000000000000000000067
:103960000000000000000000000000000100000056
:103970000200000001000000030000000100000040
:103980000000000000000000000000000000000037
:103990000000000000000000000000000000000027
:1039A0000000000000000000000000000000000017
:1039B0000200000001000000010000000000000003
:1039C00000000000000000000000000000000000F7
:1039D00000000000000000000000000000000000E7
:1039E00000000000000000000000000000000000D7
:1039F00000000000030000000100000001000000C2
:103A000004000000010000000000000000000000B1
:103A100000000000000000000000000000000000A6
:103A20000000000000000000000000000000000096
:103A3000000000000000000004000000030000007F
:103A40000100000000000000000000000000000075
:103A50000000000000000000000000000000000066
:103A60000000000000000000000000000000000056
:103A700000000000000000000000000028002000FE
:103A8000002000000D0000060100020004000600F6
:103A900008000A000C001000200040008000000117
:103AA00001010103070100000804020408010101EB
:103AB00000000000000000000102030406070809DE
:103AC0000000000001020304E83A000800000020A2
:103AD0000C01000014020008F43B00080C01002057
:103AE000DC0D00003002000800000000C05D000096
:103AF00000000000000000000000000000000000C6
:103B000000000000B80500200000000004000000D4
:103B100008000000000400480004004800040048B9
:103B200008001000200000000004004800040048C5
:103B30000004004800200040008000000000000059
:103B4000040600200000000004000000080000003F
:103B50000004004800040048000400480800100069
:103B60002000000000040048000400480004004851
:103B70000020004000800000000000000100000163
:103B80000000010000000001000001000001000130
:103B90000100000000010000010000000001010020
:103BA000000000010100000100000100000101000F
:103BB0000000000001000001010000000001010000
:103BC000000100000000000000000048000800485C
:103BD00000800040050600080F0000000000000003
:103BE00000000000100000000100000000000000C4
:043BF0000024F400B9
:04000005080001D915
:00000001FF
