:020000040800F2
:100000006008002079020008B5180008C51600082D
:1000100045180008BB050008612200080000000028
:10002000000000000000000000000000B9180008F7
:100030002906000800000000B7180008BB180008D7
:10004000930200089302000893020008930200083C
:10005000930200089302000893020008930200082C
:10006000930200089302000893020008930200081C
:10007000930200089302000893020008930200080C
:100080009302000800000000930200089302000899
:100090009302000893020008930200083B06000840
:1000A00093020008930200089302000893020008DC
:1000B00093020008930200089302000893020008CC
:1000C00093020008930200089302000893020008BC
:1000D00093020008930200089302000893020008AC
:1000E0002B06000893020008930200089302000800
:1000F0009302000893020008930200080000000029
:1001000000000000930200080000000093020008B5
:100110009302000800000000930200089302000808
:10012000930200089302000893020008930200085B
:100130009302000800000000000000009302000885
:100140009302000893020008000000000000000075
:10015000000000000000000000000000000000009F
:1001600000000000000000000000000093020008F2
:1001700093020008000000000000000000000000E2
:1001800000000000930200080000000000000000D2
:10019000000000000000000000000000000000005F
:1001A0000000000000000000930200089302000815
:1001B0009302000893020008930200080000000068
:1001C0000000000093020008000000000000000092
:1001D000930200089302000800F002F800F03CF8D7
:1001E0000AA090E8000C82448344AAF10107DA4592
:1001F00001D100F031F8AFF2090EBAE80F0013F0A8
:10020000010F18BFFB1A43F0010318470C2100002F
:100210002C210000103A24BF78C878C1FAD85207C0
:1002200024BF30C830C144BF04680C607047000070
:100230000023002400250026103A28BF78C1FBD8EF
:10024000520728BF30C148BF0B6070471FB502F08E
:100250003FF81FBD10B510BD00F0CFF81146FFF7F5
:10026000F5FF02F00FF800F0EDF803B4FFF7F2FF2E
:1002700003BC00F0F5F80000094880470948004732
:10028000FEE7FEE7FEE7FEE7FEE7FEE7FEE7FEE746
:10029000FEE7FEE704480549054A064B70470000A3
:1002A00029190008D9010008600200206008002018
:1002B000600400206004002053EA020C00F0698012
:1002C0002DE9F04B4FF00006002B1FBFB3FA83F56A
:1002D00003FA05F424FA05F65E4012BF1643B2FA9B
:1002E00082F502FA05F4C5F120051EBF22FA05FCCD
:1002F00044EA0C04203556EA044C4FEA144418BF73
:10030000641C4FF000084FF00009904271EB030CA1
:1003100039D3002919BFB1FA81F701FA07F6B0FA0B
:1003200080F700FA07F6C7F120071EBF20FA07FC86
:1003300046EA0C062037B6FBF4FCA7EB0507103F96
:1003400007F01F0BCBF120060CFA0BFB2CFA06F67C
:1003500044BFB3460026202FA4BF5E464FF0000BDB
:100360005BEA060C08BF4FF0010B19EB0B09ABFB66
:10037000027C48EB0608C01B06FB02CC0BFB03CC3F
:1003800071EB0C01C1E70B46024641464846BDE809
:10039000F08B13B54FF000004FF00001AFF3008079
:1003A000BDE81C4070474FF0000200B5134694466C
:1003B0009646203922BFA0E80C50A0E80C50B1F1BD
:1003C0002001BFF4F7AF090728BFA0E80C5048BFD1
:1003D0000CC05DF804EB890028BF40F8042B08BF6F
:1003E000704748BF20F8022B11F0804F18BF00F86B
:1003F000012B7047704770477047754600F02CF826
:10040000AE4605006946534620F00700854618B001
:1004100020B5FFF73FFFBDE820404FF000064FF04A
:1004200000074FF000084FF0000B21F00701AC4629
:10043000ACE8C009ACE8C009ACE8C009ACE8C00948
:100440008D46704710B50446AFF300802046BDE8E6
:100450001040FFF70ABF000000487047FC01002071
:1004600001491820ABBEFEE72600020070470000DD
:1004700070B500250E46012801D9AD1E11E000EB34
:10048000800101EB4011084800EB8100044600F0B8
:1004900095F82046314601F069F910B16FF003007C
:1004A00070BD284670BD00006801002070B504468C
:1004B000114886B0C16C41F00101C164C06C0F4E9F
:1004C00000F00100059036F8140000900120019022
:1004D000002002900A4D0320039055F8240069463D
:1004E00000F0EEF836F8141055F82400002200F061
:1004F00010FA06B0002070BD00100240DE22000895
:10050000E000002070470000024901EBC00000F04D
:10051000ABB80000F400002030B50446214887B095
:10052000C26C42F00402C264C06C00F0040005908A
:100530001D4830F8140000900220029003901B48E0
:1005400050F8240041B34FF488110191694600F03E
:10055000B7F81548001D50F824101448103000EB6F
:10056000C400054600F07AF810480021083050F821
:100570002420284600F08EF80C480B4D0C302D1F1F
:1005800050F824102857002200F02EFA285700F0C7
:100590001DFA07B0002030BD00210191694600F02E
:1005A0008FF8F6E700100240E0220008E400002087
:1005B00010B50020FFF7A6FF10BDFEE770B5194883
:1005C00086B0C16C41F00101C164C16C01F0010150
:1005D0000591C16C41F00101C164C16C01F00101E0
:1005E0000591C16D41F00101C165C06D022400F0AB
:1005F000010005900420CDE9000402AA01200C2589
:1006000082E831004FF090466946304600F058F8D5
:100610000820CDE9000469460495304600F050F802
:1006200006B070BD00100240704710B50020FFF703
:100630006BFFBDE8104001F03AB810B5402000F063
:1006400033F8802000F030F84FF4807000F02CF880
:10065000BDE8104001F028B872B6FEE710B10160A5
:10066000002070470120704702680123C2F3004157
:1006700002F01F029340064A02EB41110A681A4237
:1006800004D00B604068002800D00047704700008D
:10069000140401400346002011B158600120704746
:1006A0005A60704770470000044910B50A6802425A
:1006B00002D00860FFF7F6FF10BD000014040140EF
:1006C0002DE9F04FDFF82092002301260324A9F141
:1006D000040B85B00F2709F1040AABF1040EFAE010
:1006E00006FA03F52A407CD091F804C00CF0030C04
:1006F000BCF1010F02D0BCF1020F26D1D0F808C026
:10070000CDF800C04FEA430C04FA0CF8CDF810C045
:10071000DDF800C02CEA080CCDF800C0D1F80C8040
:10072000DDF810C008FA0CF8DDF800C048EA0C0843
:10073000C0F80880D0F804C02CEA050C0D79C5F388
:1007400000159D4045EA0C0545600D79ED43AD0768
:100750000ED0C5684FEA430804FA08FC25EA0C05E8
:10076000D1F808C00CFA08FC4CEA050CC0F80CC023
:100770000D7905F00305022D16D1DD0800EB850C7F
:10078000CDF808C0DCF820805D074FEAD56C07FA89
:100790000CF528EA05080D6905FA0CF5DDF808C026
:1007A00045EA0805CCF8205005684FEA430CCDF81F
:1007B00008C004FA0CFC25EA0C0591F804C00CF002
:1007C0000308DDF808C008FA0CF848EA0508C0F884
:1007D00000804D6815F4403F7CD0444DD5F860C092
:1007E00000E077E04CF0010CC5F860C02D6E23F0FE
:1007F000030C05F0010500953D4D65440295AD687B
:100800004FEA837C4FEA1C7807FA08FC25EA0C05BE
:10081000B0F1904F06D0DFF8DCC0604505D14FF055
:10082000010C20E04FF0000C1DE0DFF8CCC060456B
:1008300002D14FF0020C16E0DFF8C0C0604502D1D3
:100840004FF0030C0FE0DFF8B8C0604502D14FF065
:10085000040C08E0DFF8ACC0604502D14FF0050C95
:1008600001E04FF0060C0CFA08FC4CEA050C029D66
:10087000C5F808C0D9F80050CC46D1F8048095439B
:100880005FEAC82800D51543CCF80050DAF80050CC
:10089000D446D1F8048095435FEA882800D51543F3
:1008A000CCF80050DBF80050DC46D1F804809543CA
:1008B0005FEA883800D51543CCF80050DEF80050C8
:1008C000F446D1F8048095435FEAC83800D5154353
:1008D000CCF800505B1C0A6832FA03F57FF400AFD5
:1008E00005B0BDE8F08F0000080401400010024090
:1008F000000001400004004800080048000C0048C7
:1009000000100048001400480069084000D0012091
:1009100070470AB181617047816270470148806801
:1009200070470000FC0000200248816842681144C2
:1009300081607047FC00002010B50024032000F007
:1009400073F8002000F008F808B1012401E000F07D
:1009500025F8204610BD000070B50E4E0546002457
:10096000706898B14FF47A71B1FBF0F00A490968E8
:10097000B1FBF0F000F01CFC40B9102D06D20022B3
:100980002946501E00F030F8356000E00124204672
:1009900070BD0000FC000020080100200A4882B061
:1009A000016E41F001010166016E01F0010100914B
:1009B000816D41F080518165806D00F08050009024
:1009C00002B000F0A1B8000000100240002809DBCE
:1009D00000F01F02012191404009800000F1E02059
:1009E000C0F8001170470000F0B40E4B1B680C46B5
:1009F000C3F30223C3F10705042D00D90425191DF3
:100A0000072901D2002300E0DB1E012606FA05F1CA
:100A1000491E214099409E40761E16403143F0BC4D
:100A200001F01FBC0CED00E0064900F00702086869
:100A30004FF6FF03184040EA0220034A10430860C3
:100A4000704700000CED00E00000FA052B492C4B2C
:100A50000A6832214A432B4940B1B0F5007F08684B
:100A600029D020F4C06040F480602CE00868C0F316
:100A70004120022804D051F8800F20F4807022E039
:100A8000D1F8800020F48070C1F88000086820F45C
:100A9000C06040F400700860B2FBF3F0401C00E05E
:100AA000401E4A69520501D50028F9D14869400520
:100AB0000AD503207047C0F34120022806D051F820
:100AC000800F40F48070086000207047D1F88000EB
:100AD00040F48070C1F88000086820F4C06040F4E1
:100AE00000700860B2FBF3F0401C00E0401E4A6951
:100AF0005205DBD50028F9D1D8E700000801002015
:100B000040420F00007000400248816841F480417B
:100B100081607047007000402DE9F0470E460500E7
:100B20004FF0000725D0DFF8AC81D8F8000000F0C6
:100B30000F00B0420CD2D8F8001021F00F01314361
:100B4000C8F80010D8F8000000F00F00B04210D133
:100B50002968614CC80741F2883A5AD06868DFF8C2
:100B60007C91032808D0022820682DD04005002859
:100B70002CDB0120BDE8F08720688001F9D5E06812
:100B800000F00302E068C0F30310401C032A19D0F0
:100B9000534A00BFB2FBF0F0E268C2F306225043B2
:100BA000E268C2F34162521C5200B0FBF2F04845C9
:100BB00017D9A06810F0F00F0CD0880711D5A868DD
:100BC00040B10EE0474AE5E78003D0E700F0B6F811
:100BD000484506D9A06820F0F00040F08000A060F1
:100BE0008027A068696820F003000843A060FFF731
:100BF00095FE814606E000BFFFF790FEA0EB0901DD
:100C000051453AD8A068696800F00C00B0EB810F3C
:100C1000F2D12868810714D5400703D5A06840F4B5
:100C2000E060A0602878000705D5A06820F4605037
:100C300040F4E060A060A068A96820F0F0000843DC
:100C400004E0802F03D1A06820F0F000A060D8F865
:100C50000010404601F00F01B14216D9016821F0A1
:100C60000F0131430160FFF759FE074607E000BF5F
:100C7000FFF754FEC11B514501D903207AE7D8F88C
:100C8000000000F00F00B042F2D12878400705D5EF
:100C9000A068E96820F4E0600843A06028780007B5
:100CA00006D5A068296920F4605040EAC100A06020
:100CB00000F044F8A1680C4AC1F30311515C01F043
:100CC0001F01C8400949086009480068BDE8F047AD
:100CD000FFF742BE002002400010024000B4C404EE
:100CE0000024F40000366E010023000808010020F3
:100CF000FC0000200548064900688968054AC1F3E0
:100D00000221515C01F01F01C8407047080100201A
:100D10000010024010230008054806490068896851
:100D2000054AC1F3C221515C01F01F01C840704760
:100D3000080100200010024010230008184910B5D7
:100D40008868C0F381021748012A0BD08A68164BC5
:100D5000C2F38102022A06D08A68C2F38102032A02
:100D600003D0002010BD184610BDCA6802F003046D
:100D7000CA68C2F30312521C032C02D0B0FBF2F07B
:100D800001E0B3FBF2F0CA68C968C2F3062250431F
:100D9000C1F34161491C4900B0FBF1F010BD0000F6
:100DA000001002400024F40000366E012DE9F843E3
:100DB00004007AD02078F84DC00747D0A868E968C9
:100DC00000F00C0001F003010C2802D0082817D015
:100DD00001E0032914D06068B0F5803F17D0B0F56A
:100DE000A02F286817D020F480302860286820F4CD
:100DF000802028606068E0B1FFF790FD064614E0AF
:100E00002868800322D560680028D2D01EE02868B8
:100E100040F48030EDE740F480202860F7E700BF21
:100E2000FFF77CFD801B642870D828688003F7D505
:100E30000CE0FFF773FD064605E000BFFFF76EFD0F
:100E4000801B6428F0D828688003F7D420788007B6
:100E50004CD5A868E96800F00C0001F003010C28EB
:100E600002D004280DD001E002290AD0E068002851
:100E700028682BD040F480702860FFF74FFD0646AD
:100E800019E02868400502D5E068002891D068681C
:100E9000217C20F0FE4040EA01606860BF480068A5
:100EA000FFF75AFD002800D120E072E1FFF736FD80
:100EB000801B0228B8D828684005F7D56868217CCF
:100EC00020F0FE4040EA016068600FE020F480708E
:100ED0002860FFF723FD064605E000BFFFF71EFD73
:100EE000801B0228A0D828684005F7D42078000786
:100EF00029D560690028D5F8940013D040F001008E
:100F0000C5F89400FFF70AFD064606E090E000BF32
:100F1000FFF704FD801B022886D8D5F894008007CF
:100F2000F6D510E020F00100C5F89400FFF7F6FCBC
:100F3000064604E0FFF7F2FC801B022878D8D5F8BB
:100F400094008007F6D42078400761D5A86D00266C
:100F5000C00008D4A86D40F08050A865A86D012697
:100F600000F0805000908E480168C90511D40168D6
:100F7000804641F480710160FFF7D0FC074604E031
:100F8000FFF7CCFCC01B022852D8D8F80000C005DF
:100F9000F6D5A068012815D00528D5F8900016D000
:100FA00020F00100C5F89000D5F8900020F0040072
:100FB000C5F89000A06841F28838B8B1FFF7AEFCE0
:100FC00007460EE0D5F8900040F00100F0E740F051
:100FD0000400C5F89000F5E7FFF7A0FCC11B4145F0
:100FE00026D8D5F890008007F6D50CE0FFF796FCE0
:100FF000074604E0FFF792FCC11B414518D8D5F81D
:1010000090008007F6D41EB1A86D20F08050A8652E
:101010002078800629D5A0690028D5F8980013D03B
:1010200040F00100C5F89800FFF778FC064606E09E
:1010300075E000BFFFF772FC801B02286FD8D5F85F
:1010400098008007F6D510E020F00100C5F8980060
:10105000FFF764FC064604E0FFF760FC801B0228F3
:101060005DD8D5F898008007F6D4E069F0B3A96898
:10107000C1F3810103295DD00228286820F0807027
:10108000286003D0FFF74AFC04464BE0FFF746FC1C
:10109000064604E0FFF742FC801B02283FD8286880
:1010A0008001F7D4F4E908016FF00F0202EB01119F
:1010B0000843218A5204490802EB4151A26841EADF
:1010C00002210843217D4FF07E42490802EB416135
:1010D0000843217B40EAC160E968324A1140084375
:1010E000E860286840F08070286000E05EE0E86812
:1010F00040F08070E860FFF711FC044605E000BF97
:10110000FFF70CFC001B022809D828688001F7D5DE
:101110004CE000BFFFF702FC001B022802D90320AD
:10112000BDE8F88328688001F4D4E8681E490840C7
:10113000E8603BE00128F3D0E868226A00F0030190
:10114000914226D1616A00F0F00209011039914202
:101150001FD1A26A00F4FE41B1EB022F19D194F81D
:101160002C2000F07841B1EBC26F12D1218E00F437
:10117000C00249084905A1F50011914209D194F82E
:10118000341000F0C06049084906A1F100718142A5
:101190000CD00120C4E7000000100240FC00002039
:1011A000007000400C809F01FCFFEEFE0020B7E7BE
:1011B00010B5401EB0F1807F01D3012010BD4FF06B
:1011C000E02460610F21601701F04BF80020A0615E
:1011D00007202061002010BDF0B590F83C20012AC6
:1011E0003AD0012580F83C50022280F83D20036867
:1011F0005A689C68194E1A4FB34201D0BB4204D1C1
:1012000022F4700C4A6842EA0C02DFF858C002EA85
:101210000C02D1F800C04CEA020CC3F804C002680A
:10122000B2420DD0B2F1804F0AD00F4B9A4207D094
:101230000E4B9A4204D0BA4202D00D4B9A4204D1CE
:10124000896824F080031943916080F83D500021A3
:1012500080F83C100846F0BD0220F0BD002C014093
:10126000003401408FFFFFFD0004004000080040F3
:101270000040014010B5040003D094F83D0010B1C7
:1012800007E0012010BD002084F83C00204600F05B
:1012900023F8022084F83D00211D206800F04CFB5B
:1012A000012084F8480084F83E0084F83F0084F868
:1012B000400084F8410084F8420084F8430084F838
:1012C000440084F8450084F8460084F8470084F818
:1012D0003D00002010BD000008B50068B0F1804F4F
:1012E00008D10548816D41F001018165806D00F0F4
:1012F0000100009008BD00000010024090F83D1071
:10130000012901D001207047022180F83D100068BA
:101310000F4988420ED0B0F1804F0BD00D49884262
:1013200008D00D49884205D00C49884202D00C49AA
:10133000884207D181680B4A1140062906D0B1F5D1
:10134000803F03D0016841F0010101600020704737
:10135000002C01400004004000080040003401401F
:10136000004001400700010070B5044690F83C00C1
:101370000025012814D0012684F83C60022084F85E
:101380003D0022689068364B184020F47F40906002
:10139000086870282ED010DC10F00F0F03D021E069
:1013A0004FF0020070BD4FEA2012072A1AD2DFE880
:1013B00002F0525252524A3840002A4BC21A984206
:1013C00049D009DCB0F5805F0DD0B0F5005F1CD0CE
:1013D000B0F1101F06D13EE0102A3CD0202A3AD0AE
:1013E000502A38D0012584F83D60002084F83C0064
:1013F000284670BDCB68D1E90121206800F0FAFAD7
:101400002068816841F0770109E0CB68D1E90121CA
:10141000206800F0EFFA2068816841F48041816023
:10142000E1E7CA684968206800F08EFC5021206816
:1014300006E0CA684968206800F097FC60212068CF
:1014400000F0E2FACFE7CA684968206800F07CFC47
:1014500040212068F4E7226801461046F0E70000CA
:1014600088FFCEFF2000100010B586B0044614217E
:101470006846FEF798FF2068B0F1804F15D10C4800
:10148000C16C41F00101C164C06C022100F0010097
:1014900005900120CDE9000100210291CDE9031062
:1014A00069464FF09040FFF70BF906B010BD000001
:1014B0000010024070B5044690F83C0000260D462E
:1014C00001280BD0012084F83C000C2A4AD007DC0C
:1014D00082B1042A20D0082A06D131E0022070BD52
:1014E000102A53D0142A63D00126002084F83C002F
:1014F000304670BD206800F091FA2068816941F0A3
:10150000080181612068816921F0040181612068FE
:1015100081692A69114311E0206800F0CDFA206842
:10152000816941F4006181612068816921F48061F1
:101530008161206881692A6941EA02218161D4E7D9
:10154000206800F001FB2068C16941F00801C16119
:101550002068C16921F00401C1612068C1692A695C
:10156000114311E0206800F037FB2068C16941F4A5
:101570000061C1612068C16921F48061C161206896
:10158000C1692A6941EA0221C161AEE7206800F021
:101590006BFB2068016D41F0080101652068016D59
:1015A00021F0040101652068016D2A69114311E0F1
:1015B000206800F091FB2068016D41F40061016535
:1015C0002068016D21F4806101652068016D2A6940
:1015D00041EA0221016588E710B5040003D094F8C0
:1015E0003D0010B107E0012010BD002084F83C0050
:1015F000204600F022F8022084F83D00211D2068DA
:1016000000F09AF9012084F8480084F83E0084F83C
:101610003F0084F8400084F8410084F8420084F8D8
:10162000430084F8440084F8450084F8460084F8B8
:10163000470084F83D00002010BD704710B504003D
:1016400003D0D4F8880010B107E0012010BD0020BD
:1016500084F88400204600F026F82420C4F888008E
:101660002068016821F001010160A06A10B12046E4
:1016700000F08DFB204600F06FFC0128E6D02068CA
:10168000416821F4904141602068816821F02A017D
:1016900081602068016841F0010101602046BDE8D9
:1016A000104000F0D8BB704700F0CEB8704700F093
:1016B000CBB800000248FFF721FE00F0C5F8FEE7B6
:1016C0001C010020FEE7000030B587B014216846F9
:1016D000FEF769FE2348C16C41F00401C164C16C8E
:1016E00001F004010591C16C41F02001C164C16C9D
:1016F00001F020010591C16C41F00101C164C16C90
:1017000001F001010591C16C41F00201C164C06C9E
:10171000154D00F00200059000223F212846FFF7FA
:10172000F8F83F20009001200024CDE9010469462B
:1017300028460394FEF7C4FF4FF4E07000904FF486
:101740004410CDE9010469462846FEF7B9FF00229E
:1017500011461720FFF748F91720FFF737F907B0B0
:1017600030BD00000010024000040048094A126821
:1017700002600A6842600C2242614A8902614A683A
:1017800082600A89C260898981614FF40041C16128
:10179000FFF754BFE800002010B58EB00024079476
:1017A000089409940A940B940C941C2168460D9497
:1017B000FEF7F9FD21484FF080410160AA21C0E900
:1017C00001144FF47A71C0E903148461FFF752FDEC
:1017D00008B1FEF741FF4FF48050079007A9174862
:1017E000FFF7C2FD08B1FEF737FF1448FFF7F4FE1C
:1017F00008B1FEF731FF0B940BA910480D94FFF7C9
:10180000EBFC08B1FEF728FF602000900C484FF475
:101810007A71002200684843642190FBF1F0CDE921
:101820000104694605480494FFF744FE08B1FEF739
:1018300013FF0248FFF718FE0EB010BD1C01002078
:1018400000000020FEE700002DE9F0410024184EC2
:101850004FF0FF355FF0010706EBC400818856F8B2
:101860003400FFF751F8012802D107FA04F00544CB
:10187000641C032CF0DB062D18D20D49002405EB67
:101880004500483101EBC006A1F1300556F82400AF
:1018900008B1012200E0002205EBC400818855F860
:1018A0003400FFF736F8641C062CEFDBBDE8F0814E
:1018B00004000020FEE770477047FFF735B800B519
:1018C00093B038216846FEF76EFD14210EA8FEF78E
:1018D0006AFD0020FFF7BAF80220C1010391402100
:1018E00004910421CDE9080100905521CDE90A10A9
:1018F00007900C900D906846FFF758FA08B172B641
:10190000FEE70F200E9003200F9000201090119002
:10191000129004210EA8FFF7FFF8002801D072B63C
:10192000FEE713B000BD00000248016841F47001F9
:101930000160704788ED00E02DE9F0430268264B16
:10194000264D274E274C4FF08049984207D04845F6
:1019500005D0A84203D0B04201D0A04203D122F06A
:1019600070074A683A43204FDFF880C0DFF8808074
:1019700098420DD048450BD0A84209D0B04207D0BC
:10198000A04205D0B84203D0604501D0404503D104
:1019900022F44075CA682A434D6922F080022A4326
:1019A00002608A68C2620A688262984207D0A042D6
:1019B00005D0B84203D0604501D0404501D1096946
:1019C0000163012141610169C90703D0016921F067
:1019D00001010161BDE8F083002C014000040040DA
:1019E0000008004000340140004001400044014034
:1019F0000048014010B5846842EA032224F47F4481
:101A00000A432243826010BD8268034B1A400A4396
:101A100042F00701816070478FFFCFFF2DE9F0434F
:101A2000056A026A22F001020262436882691C4C64
:101A300025F0020522400C6822F0030214438A6854
:101A4000194E2A43174D194FDFF864C0DFF8649030
:101A5000A84207D0B04205D0B84203D0604501D0BB
:101A6000484506D122F00808CA6842EA080222F076
:101A70000402A84207D0B04205D0B84203D0604566
:101A800001D0484505D14D6923F440731D438B694E
:101A90002B4343608461496841630262BDE8F0837F
:101AA0008FFFFEFF002C0140003401400040014048
:101AB0000044014000480140F0B5056A026A22F086
:101AC0001002026242688369194C1B4E23400C6865
:101AD00023F4407343EA042425F020038D6843EA8D
:101AE0000513144DA84201D0B04206D1CF6823F0AF
:101AF000800343EA071323F04003A8420AD0B04210
:101B000008D00E4DA84205D00D4DA84202D00D4D73
:101B1000A84207D14D6922F4406242EA85028D69EC
:101B200042EA850242608461496881630362F0BDD4
:101B3000FF8FFFFE002C01400034014000400140B7
:101B40000044014000480140F0B5056A026A22F4F1
:101B5000807202624368C269194C1B4E22400C68B5
:101B600022F00302144325F400728D6842EA052234
:101B7000144DA84201D0B04206D1CF6822F40062D1
:101B800042EA072222F48062A8420AD0B04208D07A
:101B90000E4DA84205D00E4DA84202D00D4DA842D0
:101BA00007D14D6923F4405343EA05138D6943EA95
:101BB00005134360C4614968C1630262F0BD00005F
:101BC0008FFFFEFF002C0140003401400040014027
:101BD0000044014000480140F0B5056A026A22F461
:101BE000805202624268C369194C1B4E23400C6844
:101BF00023F4407343EA042425F400538D6843EA38
:101C00000533144DA84201D0B04206D1CF6823F469
:101C1000004343EA073323F48043A8420AD0B0428A
:101C200008D00E4DA84205D00D4DA84202D00D4D52
:101C3000A84207D14D6922F4404242EA85128D69DB
:101C400042EA85124260C461496801640362F0BDE2
:101C5000FF8FFFFE002C0140003401400040014096
:101C6000004401400048014030B5056A026A22F490
:101C7000803202624268036D114C23400C681C43A1
:101C800025F400330D8943EA05430E4DA8420BD0DD
:101C90000D4DA84208D00D4DA84205D00C4DA842CC
:101CA00002D00C4DA84204D14D6922F4803242EAA0
:101CB00005224260046549688164036230BD00000A
:101CC0008FFFFEFF002C0140003401400040014026
:101CD000004401400048014030B5046A026A22F421
:101CE000801202624268036D114D24F400142B40EF
:101CF0000D6843EA05230D8944EA05540D4DA842B9
:101D00000BD00D4DA84208D00C4DA84205D00C4D6B
:101D1000A84202D00B4DA84204D14D6922F4802282
:101D200042EA8522426003654968C164046230BDAD
:101D3000FF8FFFFE002C01400034014000400140B5
:101D4000004401400048014010B5036A046A24F0D1
:101D500001040462846924F0F00444EA021423F0CC
:101D60000A020A438461026210BD10B5036A046A64
:101D700024F010040462846923F0A00324F4704466
:101D800044EA023243EA01118261016210BD90F817
:101D90002810090706D501684A68836B22F40042BF
:101DA0001A434A6090F82810C90706D001684A68AB
:101DB000C36A22F400321A434A6090F82810890757
:101DC00006D501684A68036B22F480321A434A60E0
:101DD00090F82810490706D501684A68436B22F439
:101DE00080221A434A6090F82810C90606D5016877
:101DF0008A68C36B22F480521A438A6090F82810D4
:101E0000890606D501688A68036C22F400521A43D9
:101E10008A6090F82810490611D501684A68436C19
:101E200022F480121A434A60416CB1F5801F06D13A
:101E300001684A68836C22F4C0021A434A6090F831
:101E40002810090606D501684A68C06C22F40022F1
:101E500002434A6070472DE9F84300260446C0F863
:101E60009060FEF75BFD8046206800684FF020051B
:101E700000076FF07E4713D5434600222904204611
:101E8000009700F0A3F958B1216851E8000F20F045
:101E9000800041E80002002AF6D1C4F8885021E011
:101EA00020680068400722D5434600224FF4800195
:101EB0002046009700F08AF9C8B1216851E8000F68
:101EC00020F4907041E80002002AF6D12068083022
:101ED00050E8001F21F0010140E80012002AF5D16E
:101EE000C4F88C5084F884600320BDE8F883C4F8FB
:101EF0008850C4F88C5044F86C6F666026760020D9
:101F0000F3E7000010B5026852E8001F21F4907159
:101F100042E80013002BF6D10E4B0268083252E85B
:101F2000001F194042E80014002CF6D1C16E0129AF
:101F300008D1016851E8002F22F0100241E8002387
:101F4000002BF6D12021C0F88C100021C16641671A
:101F500010BD0000FEFFFFEF2DE9F04104460168CF
:101F600080682269E3691043626900251A431043BF
:101F7000DFF82CC20A688B4B1A4002430A602068C3
:101F80004168E26821F44051114341602168A06931
:101F9000614501D0226A10438A68834B1A4002438C
:101FA0008A602068C16A626A21F00F011143C16230
:101FB0007E4923687E488B420DD1D0F8880010F00E
:101FC000030006D0012855D0022842D003283FD173
:101FD00052E001203DE077498B420BD1D0F88800D8
:101FE00010F00C0035D0042833D0082840D00C283D
:101FF0002ED141E070498B420BD1D0F8880010F00F
:10200000300026D0102835D0202831D030281FD1DC
:1020100032E06A498B420BD1D0F8880010F0C00042
:1020200017D0402826D0802822D0C02810D123E005
:1020300063450DD1D0F8880010F4406009D0B0F5A8
:10204000806F17D0B0F5006F12D0B0F5406F13D08D
:1020500010205B495B4F00264FF4004263453BD1A3
:1020600060B1022813D004280BD0082872D10DE0EB
:102070000220EEE70420ECE70820EAE7FEF73AFE4C
:1020800001E0FEF75BFE010001D17CE01146606AD1
:1020900037F810206768B1FBF2F007EB4703834283
:1020A00070D8B0EB073F6DD8002308461946FEF7FD
:1020B00003F9090241EA106102027808101871411F
:1020C0003A460023FEF7F8F83F4AA0F540719142E6
:1020D00058D82168C86056E0E3694FF6EF7893421C
:1020E0002CD109284ED2DFE800F00508114D0D4D26
:1020F0004D4D1000FEF7FEFD01E0FEF70DFE010064
:1021000004D140E0FEF71AFEF9E71146606A37F89D
:102110001000B1FBF0F04100606801EB5001B1FB31
:10212000F0F0A0F1100141452CD84FF6F0710140BC
:10213000C0F3420001432068C16024E0092821D295
:10214000DFE800F0050912200E2020201100FEF724
:10215000D1FD02E016E0FEF7DFFD010004D112E040
:10216000FEF7ECFDF9E71146606A37F81000B1FBA5
:10217000F0F1606801EB5001B1FBF0F0A0F110014B
:1021800041450AD901250120A4F86A0024F8680F06
:102190002846E6602661BDE8F08180B299E700003C
:1021A00000800040F369FFCFFFF4FF1100380140C9
:1021B000001002400044004000480040004C004035
:1021C0000024F400E8220008FFFC0F002DE9F0478E
:1021D000994617460D4604464FF00008089E33E026
:1021E000701C31D0FEF79AFBA0EB0900B04218D862
:1021F000BEB120680168490726D5802D24D0402D26
:1022000022D0C169C94309070DD4082505622046BB
:10221000FFF778FEC4F8905084F884800120BDE870
:10222000F0870320FBE7C069C04300050CD4216898
:102230004FF4006008622046FFF764FE2020C4F8D7
:10224000900084F88480ECE72068C06935EA0000DB
:1022500004D00020B842C3D00020E0E70120F9E715
:10226000FEE70907090E002804DB00F1E02080F8F2
:102270000014704700F00F0000F1E02080F8141DFA
:1022800070470000FEF758FBFFF710FAFFF717FB47
:10229000FFF71AFAFFF780FA0020FEF707F901218D
:1022A0000020FEF739F909484FF4E13101600021BF
:1022B000416001814181818101460020FEF7D8F80B
:1022C00008B172B6FEE7FFF7F5F9FEE70C01002052
:1022D0004FF04070E1EE100A704700002800200027
:1022E000002000000D0000060100020004000600AE
:1022F00008000A000C0010002000400080000001CF
:1023000000000000000000000102030406070809A5
:102310000000000001020304382300080000002030
:102320000C01000014020008442400080C010020E5
:10233000540700003002000832000000000400488A
:102340004000000000040048800000000004004835
:1023500000010000000400480100000000040048E3
:1023600002000000000400480400000000040048CF
:1023700008000000000400481000000000040048AD
:10238000200000000100000000000000000000002C
:10239000000000000000000001000000000000003C
:1023A000000000000100000000000000000000002C
:1023B000010000000000000001000000010000001A
:1023C000000000000000000000000000000000000D
:1023D00001000000000000000000000001000000FB
:1023E00000000000000000000000000000000000ED
:1023F00001000000010000000000000001000000DA
:1024000000000000000000000100000000000000CB
:102410000000000000000000000000480008004824
:1024200000800040B10500080F000000000000001F
:10243000000000001000000001000000000000008B
:042440000024F40080
:04000005080001D915
:00000001FF
